:020000040800F2
:100000000000022019440008E1010008E501000891
:10001000E9010008ED010008F101000800000000FE
:10002000000000000000000000000000F5010008D2
:10003000F901000800000000FD0100081D2800086B
:1000400065440008654400086544000865440008EC
:1000500065440008654400088728000893280008C4
:1000600065440008654400087B28000865440008D2
:1000700065440008654400086544000865440008BC
:10008000654400086544000865440008000000005D
:1000900000000000000000000000000065440008AF
:1000A000654400086544000865440008654400088C
:1000B0006544000865440008654400084D280008B0
:1000C0005D28000865440008654400089F28000872
:1000D00065440008654400083D2800080000000051
:1000E0006D28000865440008654400080000000011
:1000F000000000000000000000000000654400084F
:1001000000000000654400082B2800086544000832
:1001100000000000000000000000000000000000DF
:10012000654400086544000865440008654400080B
:10013000654400080000000000000000000000000E
:1001400000000000000000000000000065440008FE
:1001500065440008654400086544000865440008DB
:10016000654400086544000800000000000000002D
:10017000000000000000000000000000000000007F
:1001800000000000654400080000000000000000BE
:08019000654400086544000805
:1001A00010B5054C237833B9044B13B10448AFF3B1
:1001B00000800123237010BD180100200000000002
:1001C000E04D000808B5034B1BB103490348AFF3EA
:1001D000008008BD000000001C010020E04D000868
:1001E00000BF704700BFFDE700BFFDE700BFFDE7B0
:1001F00000BFFDE700BF704700BF704700BF7047FA
:1002000008B5184BD3F88830164A43F47003C2F887
:100210008830154B1B68144A43F001031360124BDE
:1002200000229A60104B1B680F4A23F0847323F45A
:10023000803313600C4B0D4A5A600B4B1B680A4A03
:1002400023F480231360084B0022DA60084902205F
:1002500000F094F9034B4FF000629A6000F00AF846
:1002600000BF08BD00ED00E000380240103000245F
:100270003401002086B00023049300230593022359
:1002800003930023029302230193334B9B6803F0F3
:100290000C030493049B082B11D0049B082B44D817
:1002A000049B002B03D0049B042B04D03DE02B4B7C
:1002B0002B4A1A603DE0294B2A4A1A6039E0264B46
:1002C0005B689B0D03F001030293234B5B6803F013
:1002D0003F030193029B002B0CD0224A019BB2FBEF
:1002E000F3F31D4A52689209C2F3080202FB03F3BA
:1002F00005930BE01A4A019BB2FBF3F3164A5268CE
:100300009209C2F3080202FB03F30593124B5B68E8
:100310001B0C03F0030301335B000393059A039B5B
:10032000B2FBF3F30D4A136003E00C4B0C4A1A6066
:1003300000BF094B9B681B0903F00F030A4AD35CFB
:100340000493064B1A68049B22FA03F3034A1360D2
:1003500000BF06B0704700BF003802400000002018
:100360000024F40000127A00304F000882B00346E7
:100370008DF807309DF80730052B00F2928001A21E
:1003800052F823F09D030008C5030008ED030008A0
:10039000150400083D04000865040008424B1B6872
:1003A00003F00103002B71D13F4B1B683E4A43F021
:1003B0000103136000BF3C4B1B6803F00203002BDA
:1003C000F9D063E0384B1B6803F48033002B5FD116
:1003D000354B1B68344A43F45023136000BF324B43
:1003E0001B6803F40033002BF9D051E02E4B1B683F
:1003F00003F08073002B4DD12B4B1B682A4A43F02E
:100400008073136000BF284B1B6803F00073002B40
:10041000F9D03FE0244B1B6803F08063002B3BD1F5
:10042000214B1B68204A43F08063136000BF1E4BC2
:100430001B6803F00063002BF9D02DE01A4B5B6FB3
:1004400003F00103002B29D1174B5B6F164A43F0D1
:100450000103536700BF144B5B6F03F00203002BD3
:10046000F9D01BE0104B1B6F03F00103002B17D1D9
:100470000D4B1B6F0C4A43F00103136700BF0A4B7F
:100480001B6F03F00203002BF9D009E000BF08E066
:1004900000BF06E000BF04E000BF02E000BF00E0D4
:1004A00000BF00BF02B070470038024082B0034670
:1004B0008DF807309DF80730052B39D801A252F886
:1004C00023F000BFDD040008EB040008F904000875
:1004D000070500081505000823050008164B1B68D2
:1004E000154A23F00103136022E0134B1B68124AE4
:1004F00023F4502313601BE00F4B1B680E4A23F0BC
:100500008073136014E00C4B1B680B4A23F080636C
:1005100013600DE0084B5B6F074A23F0010353673C
:1005200006E0054B1B6F044A23F00103136700BF6D
:1005300000BF02B0704700BF0038024082B00346DF
:100540008DF807300C4B9B6823F003029DF80730B1
:1005500003F00303084913438B6000BF064B9B68FD
:100560009B0803F003029DF807309A42F6D100BFC2
:1005700000BF02B0704700BF0038024000B585B030
:1005800001900091019B072B08D8019A1346DB00CC
:100590009B1A9B00694A1344039301E0684B039341
:1005A000039B1B78012B0CD10120FFF7DFFE0120FC
:1005B000FFF7C4FF0220FFF779FF0020FFF776FF67
:1005C00095E0039B1B78022B40F085805D4B1B6CF4
:1005D0005C4A43F080531364039B5B78012B09D181
:1005E0000120FFF7C3FE574B5B68564A43F4800374
:1005F000536008E00020FFF7B9FE524B5B68514A98
:1006000023F480035360504B1B6823F04052039B3C
:10061000DB7A1B074C4913430B604A4B9B6823F45E
:100620007C4323F0F003039A127A1201D2B21A43E8
:10063000039B5B7A9B0203F4E0531A43039B9B7A70
:100640005B039BB23F4913438B603E4B5A683F4B61
:100650001340039A127902F03F021A43039B5B880E
:10066000990147F6C0730B401A43039B5B795B0803
:10067000DBB2013B1B0403F440331A43039B9B7919
:100680001B0603F07C532F4913434B600220FFF7F6
:100690006DFE2F4B1B6823F00F02039BDB6803F0FA
:1006A0000F0313432A4A43F4E06313600220FFF769
:1006B00045FF039B5B78012B09D1224B1B6803F09C
:1006C0000103002B03D00020FFF7F0FE0FE0012014
:1006D000FFF7ECFE0BE00020FFF748FE0020FFF7DD
:1006E0002DFF0220FFF7E2FE0120FFF7DFFE039B54
:1006F0001A69009B1A60039B5A69009B5A60039B0E
:100700005B7A002B02D1039B5B6902E0039B5B6970
:100710005B00009A9360039B9A69009BDA60039BDD
:100720009B7A002B02D1039B9B6902E0039B9B6990
:100730005B00009A136100BF05B000BD04000020FB
:100740007400002000380240007000400080FCF07F
:10075000003C024010B487B00190019B1B680593D8
:10076000059B5B690493714B1B6801336F4A1360EF
:10077000049B03F00103002B09D0019B9B6A5B00E3
:10078000019A92F830201A43059B1A61C9E0049B34
:1007900003F00203002B3FD0019B93F83030002B75
:1007A0001CD1059B9B690393019BDA6A019BDB6B60
:1007B000581C0199C86313441B781A46059B1A619B
:1007C000019BDA6B019B9B6B9A4240F0AA80059BD0
:1007D0005B6823F48062059B5A60A2E0019B93F85A
:1007E0003030012B40F09D80019B5B6B012B09D1C8
:1007F000059B1B6823F48062059B1A60059B9B691F
:1008000003938EE0059B1B6843F48062059B1A608E
:10081000059B9B69039384E0049B03F08003002BFA
:1008200051D0019BDA6B019B9B6B9A4218D2019BC2
:10083000DA6A019BDB6B581C0199C86313441B786F
:100840001A46059B1A61019BDA6B019B9B6B9A42CE
:1008500067D1059B5B6823F48062059B5A6060E06A
:10086000019BDA6B019B9B6B9A425AD1049B03F06C
:100870000403002B55D0019B5B6B002B13D0019B15
:10088000012283F83020019B00221A64059B5B68DB
:1008900043F48062059B5A60059B1B6843F4A06289
:1008A000059B1A603DE0059B1B6843F40072059BA5
:1008B0001A60059B5B6823F40072059B5A60019BDC
:1008C00000225A622DE0049B03F04003002B28D045
:1008D000059B1C69019BDA6A019B1B6C581C0199E2
:1008E00008641344E2B21A70019B1A6C019B5B6BA3
:1008F000013B9A4206D1059B1B6823F48062059B4D
:100900001A600EE0019B1A6C019B5B6B9A4208D146
:10091000059B1B6843F40072059B1A60019B002233
:100920005A6200BF07B05DF8044B704748010020D1
:1009300084B00190019B1B680393039B5B69029346
:10094000029B03F48073002B0AD0039B5B6923F4A2
:100950008072039B5A61019B4FF0FF325A6229E07B
:10096000029B03F40073002B0AD0039B5B6923F402
:100970000072039B5A61019B6FF005025A6219E0F5
:10098000029B03F48063002B0AD0039B5B6923F472
:100990008062039B5A61019B6FF007025A6209E073
:1009A000039B5B6923F45F42039B5A61019B4FF0F9
:1009B000FF325A62039B1B6843F40072039B1A6068
:1009C00000BF04B0704782B00190019B1B681A6899
:1009D000019B1B6842F400421A60019B1B680022C5
:1009E0001A60224B5A68019B1B682149A1FB021225
:1009F000920C5A60019B5B68002B02D1019B1D4A3F
:100A00005A601A4B5968019B5A6813465B0013449D
:100A1000B1FBF3F2019B1B6842F40042DA61134B15
:100A20005B68134AA2FB03239B0C4FF4967202FBF4
:100A300003F3114AA2FB03239A09019B1B680132AD
:100A40001A62019B1B685A6A019B1B6822F01F02F5
:100A50005A62019B1B681A68019B1B6842F00102E5
:100A60001A600023184602B0704700BF340100200E
:100A700083DE1B43801A0600D34D621086B00390BC
:100A800001921A460B46ADF80A301346ADF808300D
:100A9000039B01225A62BDF80A20039B9A62039BC2
:100AA000019ADA62039B00225A63BDF80820039B77
:100AB0009A63039B0022DA63039B00221A64039B60
:100AC000002283F83020039B1B685A68039B1B6835
:100AD00042F4E0625A60039B1B681A68039B1B6820
:100AE00042F480721A6000BF039B5B6A012BFBD04B
:100AF0000023059303E000BF059B01330593059B8D
:100B0000632BF8DD039B5B6A184606B0704786B01E
:100B1000039001921A460B46ADF80A301346ADF821
:100B20000830039B01225A62BDF80A20039B9A6297
:100B3000039B019ADA62BDF80820039B5A63039B6A
:100B400000229A63039B0022DA63039B00221A644B
:100B5000039B012283F83020039B1B685A68039B88
:100B60001B6842F4E0625A60039B1B681A68039B8F
:100B70001B6842F480721A6000BF039B5B6A012B02
:100B8000FBD00023059303E000BF059B01330593D1
:100B9000059B632BF8DD039B5B6A184606B0704724
:100BA00086B00390019200930B46ADF80A30039B88
:100BB00001225A62BDF80A20039B9A62039B019AA4
:100BC000DA62039B069A5A63039B009A9A63039B1B
:100BD0000022DA63039B00221A64039B002283F83D
:100BE0003020039B1B685A68039B1B6842F4E06239
:100BF0005A60039B1B681A68039B1B6842F480724F
:100C00001A6000BF039B5B6A012BFBD00023059396
:100C100003E000BF059B01330593059B632BF8DDC3
:100C2000039B5B6A184606B0704700BF00000000D7
:100C300088B0039002910192039B0693029B019A54
:100C4000B3FBF2F2019901FB02F29A1A039B591CC1
:100C500003911D498A5C1A70029A019BB2FBF3F35F
:100C60000293029B002BE9D1039B00221A70039A86
:100C7000069BD31A0593002307931CE0069A079B53
:100C800013441B788DF81330059A079BD31A013B48
:100C9000069A1A440699079B0B4412781A70059A13
:100CA000079BD31A013B069A13449DF813201A7030
:100CB000079B01330793059B5B08079A9A42DDD394
:100CC00000BF00BF08B07047AC00002086B00190A4
:100CD000009100230593019B5A1C01921B788DF80B
:100CE0000F3038E09DF80F302F2B08D99DF80F30CA
:100CF000392B04D89DF80F30303B04931EE0009B45
:100D0000102B0CD19DF80F30402B08D99DF80F30D7
:100D1000462B04D89DF80F30373B04930EE0009B20
:100D2000102B1CD19DF80F30602B18D99DF80F3077
:100D3000662B14D89DF80F30573B0493009B059AFF
:100D400002FB03F3049A13440593019B5A1C01927E
:100D50001B788DF80F309DF80F30002BC2D1059B0A
:100D6000184606B0704786B00190009100230593A5
:100D7000009B013B049318E0059B019A13441B78E8
:100D80000393049B019A1A44059B01990B44127822
:100D90001A70049B019A1344039AD2B21A70059BED
:100DA00001330593049B013B0493059A049B9A42EB
:100DB000E2DB00BF00BF06B0704700B587B003900C
:100DC00002910192002305931DE0039A1C4B83FBC3
:100DD00002139910D317C91A0B469B000B445B00F2
:100DE000D11ACAB2059B591C05911946029B0B44A6
:100DF0003032D2B21A70039B114A82FB0312921056
:100E0000DB17D31A0393039B002BDED107E0059B6E
:100E10005A1C05921A46029B134430221A70059AF6
:100E2000019B9A42F3DB05990298FFF79CFF059B13
:100E3000029A134400221A70059B184607B000BDA1
:100E40006766666600B589B003908DED020A019170
:100E5000DDED027AFDEEE77A17EE903A0793079BF5
:100E600007EE903AF8EEE77A9DED027A77EE677A30
:100E7000CDED067A002203990798FFF79EFF0590B3
:100E8000019B002B25D0059B039A13442E221A7038
:100E900001989FED110B00F023F853EC102B104636
:100EA000194603F09BF807EE100ADDED067A67EEAF
:100EB000877ACDED067ADDED067AFDEEE77A059BC1
:100EC0000133039A1344019A194617EE900AFFF76B
:100ED00074FF00BF09B000BD000000000000244006
:100EE00000B589B08DED020B0190019B002BB8BFBE
:100EF0005B4207934FF000021C4BCDE904231BE03B
:100F0000079B03F00103002B09D0DDE90223DDE993
:100F1000040102F051FE02460B46CDE90423079B73
:100F20005B080793DDE90223DDE9020102F044FEDC
:100F300002460B46CDE90223079B002BE0D1019B23
:100F4000002B09DADDE904234FF00000074902F025
:100F50005DFF02460B4601E0DDE9042343EC172B5D
:100F6000B0EE470AF0EE670A09B000BD0000F03F9E
:100F700008B5032000F0C6FA0F2000F00DF800239A
:100F8000184608BD08B500F005F80023184608BD4E
:100F900000BF704700BF704700B583B00190124B8F
:100FA0001A68124B1B7819464FF47A73B3FBF1F3AE
:100FB000B2FBF3F3184600F0E8FA0346002B01D029
:100FC00001230EE0019B0F2B0AD8002201994FF05C
:100FD000FF3000F0A0FA064A019B1360002300E0F6
:100FE0000123184603B000BD00000020C40000200B
:100FF000C0000020044B1B781A46044B1B681344A6
:10100000024A136000BF7047C40000204C0100205A
:10101000014B1B68184670474C010020014B1B68B0
:1010200018467047C000002000B585B003468DF813
:10103000073000238DF80F300B4B1B789DF80720ED
:101040009A420BD0084A9DF807301370074B1B6873
:101050001846FFF7A1FF03468DF80F309DF80F30BB
:10106000184605B000BD00BFC4000020C00000202D
:10107000014B1B7818467047C400002000B585B0AE
:101080000190FFF7C5FF0290019B0393039BB3F10F
:10109000FF3F05D0094B1B781A46039B134403936B
:1010A00000BFFFF7B5FF0246029BD31A039A9A428C
:1010B000F7D800BF00BF05B000BD00BFC4000020CE
:1010C000034B1B68024A23F00203136000BF704702
:1010D00010E000E0034B1B68024A43F00203136078
:1010E00000BF704710E000E0014B1846704700BF9A
:1010F00000050701024B1B681B0C1846704700BF18
:10110000002004E0024B1B68C3F30B031846704732
:10111000002004E0034B5B68024A43F00103536084
:1011200000BF7047002004E0034B5B68024A23F0D5
:101130000103536000BF7047002004E0034B5B686D
:10114000024A43F00203536000BF7047002004E0EE
:10115000034B5B68024A23F00203536000BF7047F1
:10116000002004E0034B5B68024A43F00403536031
:1011700000BF7047002004E0034B5B68024A23F085
:101180000403536000BF7047002004E0024B0122BB
:101190001A6000BF704700BF00042742024B0022C4
:1011A0001A6000BF704700BF00042742014B1B6854
:1011B00018467047107AFF1F014B1B68184670478E
:1011C000147AFF1F014B1B6818467047187AFF1FDF
:1011D00084B00190019B03F0070303930B4BDB6882
:1011E0000293029A4FF6FF0313400293039B1A02E5
:1011F000029B134343F0BF6343F400330293034A5B
:10120000029BD36000BF04B0704700BF00ED00E058
:10121000034BDB681B0A03F007031846704700BF47
:1012200000ED00E082B003468DF807309DF80730EE
:1012300003F01F0205499DF907305B09012000FA00
:1012400002F241F8232000BF02B0704700E100E045
:1012500082B003468DF807309DF8073003F01F0277
:1012600006499DF907305B09012000FA02F220339C
:1012700041F8232000BF02B0704700BF00E100E04A
:1012800082B003468DF80730084A9DF907305B09A4
:10129000403352F823209DF8073003F01F0322FA51
:1012A00003F303F00103184602B0704700E100E0C9
:1012B00082B003468DF807309DF8073003F01F0217
:1012C00006499DF907305B09012000FA02F240331C
:1012D00041F8232000BF02B0704700BF00E100E0EA
:1012E00082B003468DF807309DF8073003F01F02E7
:1012F00006499DF907305B09012000FA02F26033CC
:1013000041F8232000BF02B0704700BF00E100E0B9
:1013100082B003468DF80730084A9DF907305B0913
:10132000803352F823209DF8073003F01F0322FA80
:1013300003F303F00103184602B0704700E100E038
:1013400082B0034600918DF807309DF90730002BDD
:101350000CDA009BDAB20C499DF8073003F00F035A
:10136000043B1201D2B20B441A7609E0009BDAB2B8
:1013700006499DF907301201D2B20B4483F80023CD
:1013800000BF02B0704700BF00ED00E000E100E0E8
:1013900082B003468DF807309DF90730002B0BDA39
:1013A0000B4A9DF8073003F00F03043B13441B7EE8
:1013B000DBB21B09DBB208E0064A9DF90730134493
:1013C00093F80033DBB21B09DBB2184602B070475A
:1013D00000ED00E000E100E088B00390029101928E
:1013E000039B03F007030793079BC3F10703042B39
:1013F00028BF04230693079B0433062B02D9079BBF
:10140000033B00E0002305934FF0FF32069B02FAF6
:1014100003F3DA43029B1A40059B9A404FF0FF31D9
:10142000059B01FA03F3D943019B0B401343184674
:1014300008B0704788B00390029101920093029B1C
:1014400003F007030793079BC3F10703042B28BF8F
:1014500004230693079B0433062B02D9079B033B07
:1014600000E000230593039A059BDA404FF0FF311B
:10147000069B01FA03F3DB431A40019B1A604FF00D
:10148000FF32059B02FA03F3DA43039B1A40009BE9
:101490001A6000BF08B07047BFF34F8F00BF074B03
:1014A000DB6803F4E0620549054B1343CB60BFF3EF
:1014B0004F8F00BF00BF00BF00BFFBE700ED00E0A3
:1014C0000400FA0500B583B00190019B013BB3F124
:1014D000807F01D301230FE0094A019B013B536048
:1014E0000F214FF0FF30FFF72BFF054B00229A60D2
:1014F000034B07221A600023184603B000BD00BF4B
:1015000010E000E000B583B001900198FFF760FEA5
:1015100000BF03B000BD00B587B003460291019241
:101520008DF80F3000230593FFF772FE0590019AA6
:1015300002990598FFF750FF02469DF90F301146BA
:101540001846FFF7FDFE00BF07B000BD00B583B031
:1015500003468DF807309DF907301846FFF762FE05
:1015600000BF03B000BD00B583B003468DF807305F
:101570009DF907301846FFF76BFE00BF03B000BDB2
:1015800008B5FFF789FF00BF08BD00B583B0019023
:101590000198FFF797FF0346184603B000BDBFF35D
:1015A0005F8F00BF054B5B6A044A23F480335362AC
:1015B000034B00225A6000BF704700BF00ED00E0FF
:1015C00090ED00E082B00190094A019B43F00103D5
:1015D0005360084B5B6A074A43F480335362BFF39E
:1015E0004F8F00BFBFF36F8F00BF00BF02B07047C7
:1015F00090ED00E000ED00E082B00190019B5A7890
:101600001C4B9A60019B1B78002B29D0194A019B27
:101610005B68D360019B1B7B1A07019BDB7A1B066F
:101620001A43019B9B7ADB041A43019B5B7B9B045F
:101630001A43019B9B7B5B041A43019BDB7B1B04CE
:101640001A43019B5B7A1B021A43019B1B7A5B00C6
:101650001343019A12781146064A0B43136105E0C1
:10166000044B0022DA60034B00221A6100BF02B073
:10167000704700BF90ED00E008B5FFF7C9FD0346D5
:10168000184608BD00B585B002910192009303464B
:101690008DF80F309DF90F301846FFF779FE009B4B
:1016A000019A0299FFF7C6FE00BF05B000BD00B564
:1016B00083B003468DF807309DF907301846FFF7D1
:1016C000F7FD00BF03B000BD00B583B003468DF841
:1016D00007309DF907301846FFF7D2FD034618463C
:1016E00003B000BD00B583B003468DF807309DF907
:1016F00007301846FFF7F4FD00BF03B000BD00B58A
:1017000083B003468DF807309DF907301846FFF780
:10171000FFFD0346184603B000BD82B00190019B57
:10172000042B06D1074B1B68064A43F004031360E1
:1017300005E0044B1B68034A23F00403136000BF59
:1017400002B0704710E000E008B500F002F800BFFA
:1017500008BD00BF704700BF00B583B00190019B7A
:101760001B685868019B9B6A591C019A9162C2B21E
:101770001A70019BDB8D9BB2013B9AB2019BDA850B
:10178000019BDB8D9BB2002B0AD1019B1B68DA68A1
:10179000019B1B6822F02002DA60019801F08FF8AB
:1017A00000BF03B000BD00B585B00190019B1B6870
:1017B0001B680393039B03F02003002B03D00198C5
:1017C000FFF7CAFF19E0039B03F01003002B03D0BF
:1017D000019B1B685B6810E0039B03F00803002B70
:1017E00003D0019B1B685B6807E0039B03F00103C8
:1017F000002B02D0019B1B685B6800BF05B000BDD9
:1018000084B00190019B5B680393019B1B68264A8F
:10181000934204D0019B1B68244A934208D1244B75
:10182000D968019B1B68039AB1FBF2F29A6007E04A
:101830001F4B5968019B1B68039AB1FBF2F29A6037
:10184000019B1B6800229A61019B1B685B69019ADE
:10185000126823F47F6323F00F035361019B1B681D
:101860001B6923F4FE4323F07F03019AD168019A98
:1018700012680B431361019B1B68DB6823F43F4331
:1018800023F0FF03019A92681A43019B5B6913439B
:10189000019A126843F4005343F00C03D360002311
:1018A000184604B0704700BF00100140001401400A
:1018B0003401002000B587B0039002911346ADF8C3
:1018C00006300023ADF816300DE0BDF81630029A50
:1018D00013441B781946039800F050F8BDF81630F1
:1018E0000133ADF81630BDF81620BDF806309A4227
:1018F000EBD30023184607B000BD84B003900291DB
:101900001346ADF8063014E000BF039B1B681B684C
:1019100003F02003002BF8D0039B1B685968029B3F
:101920005A1C0292CAB21A70BDF80630013BADF8DB
:101930000630BDF80630002BE6D10023184604B06F
:10194000704784B0039002911346ADF80630039BB4
:101950001B68DA68039B1B6842F02002DA60039B75
:10196000029A9A62039BBDF806209A85039BBDF8F4
:101970000620DA850023184604B0704782B0019033
:101980000B468DF8033000BF019B1B681B6803F0FA
:101990008003002BF8D0019B1B689DF803205A6040
:1019A00000BF02B0704700B583B00190009107E01E
:1019B000009B5A1C00921B7819460198FFF7DEFF26
:1019C000009B1B78002BF3D100BF00BF03B000BD0C
:1019D0000EB42DE9F04398B0019020AB0B932BE1AE
:1019E0001F9B1B78252B40F01E811F9B01331F93EB
:1019F0001F9B1B78252B3BD0252BC0F20D81782B0C
:101A000000F30A81632BC0F20781633B152B00F2C0
:101A1000038101A252F823F07B1A0008A91A0008DA
:101A2000191C0008231B0008191C0008191C0008B9
:101A3000191C0008191C0008191C0008191C0008B2
:101A4000191C0008191C0008191C0008191C0008A2
:101A5000191C0008191C0008951A0008191C000818
:101A6000DF1A0008191C0008191C0008011B0008D7
:101A700025210198FFF782FFDBE00B9B1A1D0B92DB
:101A80001B688DF833309DF8333019460198FFF705
:101A900075FFCEE00B9B1A1D0B921B6816931699CF
:101AA0000198FFF780FFC4E00B9B1A1D0B921B6887
:101AB0001793179B002B06DA2D210198FFF75EFF85
:101AC000179B5B42179302AB0A2217991846FFF740
:101AD000AFF802AB19460198FFF765FFA9E00B9B31
:101AE0001A1D0B921B68179302AB0A22179918460E
:101AF000FFF79EF802AB19460198FFF754FF98E0F4
:101B00000B9B1A1D0B921B68179302AB102217999F
:101B10001846FFF78DF802AB19460198FFF743FF0F
:101B200087E00B9B073323F0070303F108020B92B6
:101B3000D3E90023CDE91423DDE914014FF00002BD
:101B40004FF00003CA0F0023CDE91223129B03F0CC
:101B500001031193DDE914239046C3F31309CDE982
:101B60001289DDE9120101F0F1FF02460B46CDE9D1
:101B70000E234FF00002384BDDE90E0102F046F96A
:101B800002460B46CDE90E234FF00002334BDDE950
:101B90000E0101F05BFE02460B46CDE90E23DDE9A6
:101BA00014014FF000024FF000030A0D0023C2F3AE
:101BB0000A060027CDE91267DDE9122328495418E7
:101BC00043F1FF35CDE91245129B18469FED200BDE
:101BD000FFF786F951EC100BDDE90E2301F0ECFF65
:101BE00002460B461046194602F0F8F903460D93DB
:101BF000119B012B03D12D210198FFF7BFFE02ABF2
:101C000005219DED0D0A1846FFF71CF902AB194698
:101C10000198FFF7C8FE0CE01F9B1B78194601983E
:101C2000FFF7ACFE05E01F9B1B7819460198FFF7F4
:101C3000A5FE1F9B01331F931F9B1B78002B7FF476
:101C4000CFAE00BF00BF18B0BDE8F04303B070478F
:101C50000000000000000040000030430000F03FA2
:101C600001FCFFFF00B583B00346ADF806300B4B17
:101C70005A69BDF806301340002B0BD0074B5A6948
:101C8000BDF80630054913404B61BDF806301846D3
:101C900000F00EFE00BF03B000BD00BF003C0140DD
:101CA00088B0019000910023059300230493002342
:101CB00006930023079359E10122079B02FA03F3DD
:101CC0000593009B1B68059A13400493049A059B97
:101CD0009A4240F04881009B5B68022B03D0009B36
:101CE0005B68122B23D1079BDA08019B083253F85B
:101CF00022300693079B03F007039B000F2202FA92
:101D000003F3DB43069A13400693009B1A69079B73
:101D100003F007039B0002FA03F3069A13430693AA
:101D2000079BDA08019B0832069943F82210019BB1
:101D30001B680693079B5B00032202FA03F3DB4355
:101D4000069A13400693009B5B6803F00302079B0F
:101D50005B0002FA03F3069A13430693019B069A6B
:101D60001A60009B5B68012B0BD0009B5B68022B09
:101D700007D0009B5B68112B03D0009B5B68122B84
:101D800030D1019B9B680693079B5B00032202FAFC
:101D900003F3DB43069A13400693009BDA68079B24
:101DA0005B0002FA03F3069A13430693019B069A1B
:101DB0009A60019B5B6806930122079B02FA03F37A
:101DC000DB43069A13400693009B5B681B0903F0F4
:101DD0000102079B02FA03F3069A13430693019B41
:101DE000069A5A60019BDB680693079B5B000322FF
:101DF00002FA03F3DB43069A13400693009B9A68AA
:101E0000079B5B0002FA03F3069A13430693019BB8
:101E1000069ADA60009B5B6803F08053002B00F0A9
:101E2000A28000230393554B5B6C544A43F48043D8
:101E30005364524B5B6C03F480430393039B504AFF
:101E4000079B9B08023352F823300693079B03F04D
:101E500003039B000F2202FA03F3DB43069A1340AD
:101E60000693019B474A934219D0019B464A9342ED
:101E700013D0019B454A93420DD0019B444A9342A3
:101E800007D0019B434A934201D1042308E0072372
:101E900006E0032304E0022302E0012300E0002324
:101EA000079A02F0030292009340069A13430693A6
:101EB0003349079B9B080233069A41F82320364B8F
:101EC0001B680693049BDB43069A13400693009B12
:101ED0005B6803F48033002B03D0069A049B134302
:101EE00006932D4A069B13602B4B5B680693049B5D
:101EF000DB43069A13400693009B5B6803F40033B0
:101F0000002B03D0069A049B13430693224A069B98
:101F10005360214B9B680693049BDB43069A134056
:101F20000693009B5B6803F48013002B03D0069A92
:101F3000049B13430693184A069B9360164BDB6879
:101F40000693049BDB43069A13400693009B5B6851
:101F500003F40013002B03D0069A049B134306934B
:101F60000D4A069BD360079B01330793079B0F2BFA
:101F70007FF6A2AE00BF00BF08B070470038024035
:101F80000038014000000240000402400008024006
:101F9000000C024000100240003C014082B0019061
:101FA0000B46ADF8023000BF184602B0704782B051
:101FB00001900B46ADF8023000BF184602B07047E2
:101FC00082B001900B46ADF802301346ADF80030F8
:101FD00000BF02B0704782B001900B46ADF80230EE
:101FE0001346ADF8003000BF02B0704700B583B0B3
:101FF0000190019B1B681A69019B1B6822F01F025C
:102000001A61019800F060FC00BF03B000BD82B00F
:10201000019000910023184602B0704782B00190F1
:1020200000910023184602B0704782B00190019BD6
:102030001B681A69019B1B6822F01F021A61019B31
:102040001B681A68019B1B6802F47C421A60019BA2
:102050001B68019A52689A62019B1B68019AD268B8
:10206000DA620023184602B0704782B0019000BFC8
:1020700002B0704782B0019000BF02B0704782B0DA
:10208000019000BF02B0704782B0019000BF02B063
:10209000704782B00190019B1B681A69019B1B6805
:1020A00022F01F021A61019B1B684FF400425A6420
:1020B000019B1B6880221A60019B1B68019A526871
:1020C0009A62019B1B68019AD268DA620023184663
:1020D00002B0704784B00390029101920093029B7A
:1020E000042B02D8019B642B01D90023E8E0029B5A
:1020F000013B032B46D801A252F823F00D21000822
:102100002B2100084921000867210008039B1B6858
:10211000DB6A0133019A03FB02F2039B1B686A49E5
:10212000A1FB021252095A632DE0039B1B68DB6A74
:102130000133019A03FB02F2039B1B686249A1FB76
:10214000021252099A631EE0039B1B68DB6A01338B
:10215000019A03FB02F2039B1B685B49A1FB02127D
:102160005209DA630FE0039B1B68DB6A0133019AB3
:1021700003FB02F2039B1B685349A1FB02125209A5
:102180001A6400E000BF029B013B0293029B032BF9
:102190006ED801A252F823F0A9210008DB21000823
:1021A0000D2200083F220008039B1B689B69029ACE
:1021B000D20002F00802FF2101FA02F2D2431A40D3
:1021C000029BDB0003F00803682101FA03F31946C0
:1021D000039B1B680A439A614BE0039B1B689B6946
:1021E000029AD20002F00802FF2101FA02F2D24361
:1021F0001A40029BDB0003F00803682101FA03F395
:102200001946039B1B680A439A6132E0039B1B68D3
:10221000DB69029AD20002F00802FF2101FA02F201
:10222000D2431A40029BDB0003F00803682101FA45
:1022300003F31946039B1B680A43DA6119E0039B09
:102240001B68DB69029AD20002F00802FF2101FA42
:1022500002F2D2431A40029BDB0003F0080368211C
:1022600001FA03F31946039B1B680A43DA6100E095
:1022700000BF009B002B14D0039B1B681B6A029AB3
:1022800092000F2101FA02F2D2431A40029B9B00F6
:10229000012101FA03F31946039B1B680A431A62E2
:1022A0000DE0039B1B681A6A029B9B000F2101FA39
:1022B00003F3DB431946039B1B680A401A620023A1
:1022C000184604B0704700BF1F85EB5184B00390DF
:1022D00002910192029B042B02D8019B642B01D92D
:1022E00000234DE0029B013B032B47D801A252F88B
:1022F00023F000BF05230008232300084123000822
:102300005F230008039B1B68DB6A0133019A03FB10
:1023100002F2039B1B681C49A1FB021252095A637B
:102320002DE0039B1B68DB6A0133019A03FB02F279
:10233000039B1B681449A1FB021252099A631EE019
:10234000039B1B68DB6A0133019A03FB02F2039BC8
:102350001B680D49A1FB02125209DA630FE0039BCF
:102360001B68DB6A0133019A03FB02F2039B1B68C3
:102370000549A1FB021252091A6400E000BF0023C4
:10238000184604B0704700BF1F85EB5182B0019022
:10239000019B1B689B68224A1360214B1B6803F05A
:1023A0000203002B21D0019B1B6C002B1DD0019B35
:1023B0005B6C012B02D9019B1B68DB68019B9A6B4C
:1023C000019B5B6C581C0199486413441A78019B6B
:1023D0001B68DA60019B1B6C5A1E019B1A64114B2F
:1023E0001B6801330F4A136012E0019B1B68DB6816
:1023F000019B1B685A68019B1B6822F080025A608F
:10240000094B1B680133084A1360019B00221A65BF
:10241000064B1B680133054A136000BF02B07047CA
:102420005C010020540100205801002050010020D0
:1024300086B00190002304931D4BDB680493019B3D
:102440001B6B049AB2FBF3F303930023059326E07E
:10245000059B0133012202FA03F31A46039B9342C0
:102460001AD8019B5A6B059BDB001A43019B1B6822
:1024700042F441721A60019B1B6804225A60019B5E
:102480001B681A68019B1B6842F040021A60049A9C
:10249000059B02FA03F307E0059B01330593059BB7
:1024A000072BD5D94FF0FF33184606B0704700BF51
:1024B0003401002084B0039002911346ADF8063039
:1024C000039B01221A65039B029A9A63BDF80630AA
:1024D000013B1A46039B1A64039B01225A64039B27
:1024E0001B685A68039B1B6842F080025A60039B7A
:1024F0009B6B1A78039B1B68DA6000BF039B1B6809
:102500009B6803F00303002BF8D0039B1B689B68B8
:1025100003F08003002BF1D1039B1B68DB680023D1
:10252000184604B0704782B001900B468DF8033016
:10253000019B1B689DF80320DA6000BF019B1B68AC
:102540009B6803F00303002BF8D0019B1B689B687A
:1025500003F08003002BF1D1019B1B68DB68002393
:10256000184602B0704700BF82B003468DF80730AE
:102570009DF8073003F01F0205499DF907305B09FC
:10258000012000FA02F241F8232000BF02B0704798
:1025900000E100E082B0034600918DF807309DF91C
:1025A0000730002B0CDA009BDAB20C499DF807309B
:1025B00003F00F03043B1201D2B20B441A7609E078
:1025C000009BDAB206499DF907301201D2B20B44E2
:1025D00083F8002300BF02B0704700BF00ED00E0A9
:1025E00000E100E000B585B0002303931C4B1B6B9A
:1025F0001B4A43F001031363194B1B6B03F00103E8
:102600000393039B00230293154B1B6B144A43F067
:1026100002031363124B1B6B03F002030293029B32
:10262000002301930E4B1B6B0D4A43F0040313630D
:102630000B4B1B6B03F004030193019B00F012F89A
:1026400000F014F800F014F800F026F800F038F864
:1026500000F0AEF800F062F800BF05B000BD00BFAA
:102660000038024086B000BF06B0704700BF704718
:1026700082B000230193074B1B6C064A43F0010311
:102680001364044B1B6C03F001030193019B00BF17
:1026900002B070470038024082B000230193074B1C
:1026A0001B6C064A43F008031364044B1B6C03F0D5
:1026B00008030193019B00BF02B07047003802403D
:1026C00000B587B000230093124B1B6C114A43F4F2
:1026D000003313640F4B1B6C03F400330093009B17
:1026E0000C230193022302930023039302230493F8
:1026F0000723059301AB19460748FFF7D1FA0721D5
:102700002620FFF747FF2620FFF72EFF00BF07B068
:1027100000BD00BF003802400000024000B587B095
:102720004FF4A07301930123029300230393012329
:10273000049301AB19461B48FFF7B2FA40230193FB
:1027400001230293002303930123049301AB194651
:102750001548FFF7A5FA00230093144B5B6C134A4E
:1027600043F480535364114B5B6C03F48053009328
:10277000009BA023019302230293002303930323CE
:1027800004930523059301AB19460648FFF788FA21
:1027900004212320FFF7FEFE2320FFF7E5FE00BF04
:1027A00007B000BD000002400004024000380240B3
:1027B00000B587B000230093164B1B6C154A43F4F9
:1027C00000131364134B1B6C03F400130093009B62
:1027D0004FF44073019312230293002303930223C7
:1027E00004930423059301AB19460B48FFF758FAED
:1027F00003211F20FFF7CEFE1F20FFF7B5FE0221A9
:102800002020FFF7C7FE2020FFF7AEFE00BF07B075
:1028100000BD00BF003802400004024008B5FEF7CA
:10282000E9FBFEF791FF00BF08BD08B50248FFF7BE
:10283000DDFB00BF08BD00BFD803002008B502487B
:10284000FEF7B1FF00BF08BDEC03002008B5024849
:10285000FDF780FF00BF08BD1C04002008B502483A
:10286000FEF766F800BF08BD1C04002008B54FF451
:102870000050FFF7F7F900BF08BD08B51020FFF7BB
:10288000F1F900BF08BD08B50120FFF7EBF900BF63
:1028900008BD08B50220FFF7E5F900BF08BD08B57F
:1028A0000248FFF773FD00BF08BD00BF70030020A2
:1028B00082B00346ADF8063000BF02B0704782B068
:1028C000019000BF02B0704782B0019000BF02B01B
:1028D000704770B59EB0FEF74BFBFFF783FE594B78
:1028E000594A1A60574B4FF4E1325A60554B002257
:1028F0009A60544B0022DA60524B00221A61514B0D
:102900000C225A614F4B00229A614E4B0022DA6131
:102910004C48FEF775FF4D4B1D9309221D99494800
:10292000FEF7C8FF6420FEF7A9FB494B494A1A602D
:10293000474B494A5A60464B00229A60444B00225A
:10294000DA60434B00221A61414B00225A61404B2E
:1029500000229A613E4B0022DA613D4B00221A624E
:102960003B48FEF730F83D4B1C930D221C9935482F
:10297000FEF7A0FF6420FEF781FB17AB184600F0BE
:10298000FCF8374B324A9A62354B76229A8417AB61
:102990001946334800F071FA034683F00103DBB2B5
:1029A000002B04D04FF4FA70FEF768FBFAE717AB80
:1029B00019462B4800F061FA034683F00103DBB2AD
:1029C000002B0BD0274B19930D2219991D48FEF7A8
:1029D00071FF4FF4FA70FEF751FBFAE7224B1B939D
:1029E0000B221B991748FEF765FF16AA15A90023AD
:1029F0001B4800F089FEFEF70BFB0646169B1846A7
:102A000001F082F804460D46159B184601F07CF84B
:102A100002460B4605A8CDE90223CDE90045334621
:102A2000124A402101F020FD1A901A9B9AB205AB80
:102A300019460448FEF73EFF4FF4FA70FEF71EFBFE
:102A400000BFD2E7EC0300200044004064560008B9
:102A50001C04002000540040A086010070560008AD
:102A60006004002080560008905600089C5600081C
:102A700000B587B00590084611461A460346ADF8E2
:102A800012300B46ADF810301346ADF80E30BDF8DD
:102A90001030DAB2089B1A70BDF82430BDF812105D
:102AA0000A9A019200930123089A0598FEF778F894
:102AB0000346184607B000BD2DE9F0438BB002AFC6
:102AC000F860084611461A4603467B810B463B8157
:102AD0001346FB806B461E46B7F84430591C4B1E0C
:102AE000BB610A460023904699464FF000024FF022
:102AF00000034FEAC90343EA58734FEAC8020A4683
:102B0000002314461D464FF000024FF00003EB0077
:102B100043EA5473E2000B460733DB08DB00ADEBFE
:102B2000030D02AB7B613B89DAB27B691A7000232B
:102B3000FB830AE0FB8B3A6C1A44FB8B0133117860
:102B40007A69D154FB8B0133FB83FA8BB7F844309D
:102B50009A42EFD3B7F8443001339AB27989BB6C0B
:102B6000009313467A69F868FDF788FF0346B54677
:102B700018462437BD46BDE8F08382B00190019B22
:102B800003221A70019B00225A70019B03229A7043
:102B9000019B0322DA70019B03221A71019B03221D
:102BA0005A7100BF02B0704700B58BB007900B465A
:102BB00005928DF81B30079B9B8C5B00ADF826308F
:102BC000079B986A9DF81B309AB2BDF8261041F217
:102BD000883302930223019309AB00930123FFF78B
:102BE00047FF0346002B0ED19DF825301BB21B0278
:102BF0001AB29DF824301BB213431BB29AB2059B44
:102C00001A80012300E0002318460BB000BD10B568
:102C10008AB0079005921A460B468DF81B30134672
:102C20008DF81A30079B9B8C5B00ADF82630079B14
:102C3000986A9DF81B309AB29DF81A309BB2BDF885
:102C4000261041F2883402940193059B00930123DE
:102C5000FFF70EFF0346002B01D1002300E0012304
:102C600018460AB010BD00B583B00190019B1A460A
:102C700088210198FFF798FF0346002B6FD0019B36
:102C800002331A468A210198FFF78EFF0346002B74
:102C900065D0019B04331A468C210198FFF784FF0D
:102CA0000346002B5BD0019B06331A468E21019808
:102CB000FFF77AFF0346002B51D0019B08331A46D9
:102CC00090210198FFF770FF0346002B47D0019B2E
:102CD0000A331A4692210198FFF766FF0346002B3C
:102CE0003DD0019B0C331A4694210198FFF75CFFFD
:102CF0000346002B33D0019B0E331A4696210198D0
:102D0000FFF752FF0346002B29D0019B10331A46D0
:102D100098210198FFF748FF0346002B1FD0019B25
:102D200012331A469A210198FFF73EFF0346002B03
:102D300015D0019B14331A469C210198FFF734FFEC
:102D40000346002B0BD0019B16331A469E21019897
:102D5000FFF72AFF0346002B01D0012300E00023E8
:102D6000184603B000BD00B585B00190019B03F18A
:102D700018020123A1210198FFF749FF0346002B08
:102D80004ED1019B1A331A46E1210198FFF70CFF3F
:102D90000346002B44D0019B03F11C020123E321D5
:102DA0000198FFF734FF0346002B39D10DF10E03D4
:102DB0001A46E4210198FFF7F7FE0346002B2FD0B7
:102DC00003AB1A46E5210198FFF7EEFE0346002B00
:102DD00026D0019B03F122020123E7210198FFF78E
:102DE00016FF0346002B1BD1BDF80E301BB21B0192
:102DF0001BB203F47F631AB2BDF80E301B121BB274
:102E000003F00F031BB213431AB2019BDA83BDF820
:102E10000C301B099BB21AB2019B1A84012300E0FB
:102E20000023184605B000BD00B589B005900B46DB
:102E30008DF8133013468DF81230059B9B8C5B0088
:102E4000ADF81E30059B986A9DF813309AB2BDF814
:102E50001E1042F210730293012301930DF112032D
:102E600000930123FFF728FE0346002B01D1002326
:102E700000E00123184609B000BD00B585B00190FF
:102E80000091019B9B8C762B05D0019B9B8C772B13
:102E900001D00023A3E0019B03F132020123D021E2
:102EA0000198FFF7B4FE0346002B01D0002396E003
:102EB000019B93F83230582B06D0019B93F83230A7
:102EC000602B01D000238AE0B622E0210198FFF7B1
:102ED000ABFF0346002B01D0002380E003AA0123AF
:102EE000F3210198FFF793FE0346002BF6D19DF8DE
:102EF0000C3003F00103002BF0D10198FFF7B3FE73
:102F0000034683F00103DBB2002B00D101E0002374
:102F100065E0019B93F83230602B0AD10198FFF7EE
:102F200022FF034683F00103DBB2002B01D0002314
:102F300055E0009B5B795BB25B015AB2009B5B780A
:102F40005BB29B005BB213435BB28DF80F309DF810
:102F50000F301A46F5210198FFF766FF0346002B54
:102F600001D000233BE0009B1B78012B02D1009B8A
:102F700000221A70009BDB785BB25B015AB2009BA7
:102F80009B785BB29B005BB213435AB2009B1B78E9
:102F90005BB213435BB28DF80E30019B93F8323075
:102FA000602B0FD1009B1B798DF80D309DF80D30F3
:102FB0001A46F2210198FFF737FF0346002B01D094
:102FC00000230CE09DF80E301A46F4210198FFF71B
:102FD0002BFF0346002B01D0002300E001231846FD
:102FE00005B000BD00B585B001900DF10F020123C1
:102FF000F4210198FFF70BFE0346002B01D00023BC
:103000001AE09DF80F3023F00303DBB28DF80F3088
:103010009DF80F3043F00103DBB28DF80F309DF8BF
:103020000F301A46F4210198FFF7FEFE0346002BED
:1030300001D0002300E00123184605B000BD00B513
:1030400085B001900DF10F020123F3210198FFF7E4
:10305000DEFD0346002B01D0002308E09DF80F3071
:1030600003F00803002B01D0012300E000231846E1
:1030700005B000BD86B0039002910192029BDA1068
:10308000039B1B885B00D31A039AB2F9022002FB50
:1030900003F3DB120593029B1B11039A12889B1A00
:1030A000029A121103990988521A02FB03F31B13A7
:1030B000039AB2F9042002FB03F39B130493059ACD
:1030C000049B1A44019B1A60019B1A6813469B00DB
:1030D000134480331B12184606B070472DE9F04F99
:1030E000CBB0439042914192419BDA171C46154662
:1030F000B4F5FA3845F1FF39CDE94889499A489B3A
:1031000003FB02F1499A489B02FB03F3CA18489B50
:10311000A3FB0367D3191F46439BB3F910301BB2BF
:10312000DA1710931192DDE91001034603FB07F251
:103130000B4606FB03F313440246A6FB02AB5B44BB
:103140009B46CDE946ABCDE946AB439BB3F90E3088
:103150001BB2DA1712931392489BDDE912452A46F7
:1031600002FB03F2499B214601FB03F31A44489BEF
:103170002146A3FB013101910093019BD3180193D8
:103180004FF000004FF00001DDE900452B465904E7
:10319000234641EAD33123465804DDE94623141877
:1031A0002E944B412F93DDE92E34CDE94634439BD9
:1031B000B3F90C301BB2DA17149315924FF00000DC
:1031C0004FF00001149BD9000020DDE946231418BC
:1031D00030944B413193DDE93034CDE94634499A9E
:1031E000489B03FB02F1499A489B02FB03F3CA1870
:1031F000489BA3FB033103910293039BD3180393D2
:10320000439BB3F90A301BB2DA1716931792DDE924
:1032100002452B46DDE91667324602FB03F23B46C8
:10322000214601FB03F3134422463146A2FB012150
:1032300005910492059A134405934FF000004FF056
:103240000001DDE904452346180A2B4640EA0360E5
:103250002B461912439BB3F908301BB2DA171893A7
:103260001992489BDDE91856324602FB03F2499B4E
:103270002C4604FB03F31A44489B2C46A3FB04345E
:1032800007940693079BD31807934FF000024FF063
:103290000003DDE90656344623032C4643EA145363
:1032A0002C4622038418329441EB03033393DDE967
:1032B0003234CDE94834DDE9482303F500411B9160
:1032C0001A92439BDB889BB200221C931D92DDE97E
:1032D0001A452B46DDE91C67324602FB03F23B46EA
:1032E000214601FB03F3134422463146A2FB012190
:1032F00009910892099A134409934FF000024FF084
:103300000003DDE9084529464A102946CB17CDE9D7
:103310004823DDE94823134301D100232DE1429BDB
:10332000C3F58013DA1734933592DDE93434CDE9EF
:103330004434449B5B101F93449BDB071E93DDE9E1
:103340004623DDE91E452146891A2091294661EB75
:1033500003032193DDE9204522462B46911836913F
:103360005B413793DDE936232146511838912946D0
:103370004B4139934FF000024FF00003DDE938670D
:1033800039468B01314643EA916331468A01314621
:1033900089183A91394643EB01013B914FF0000205
:1033A0004FF00003DDE93A6739468B00314643EAC6
:1033B000917331468A0010461946034622469B18EF
:1033C0003C930B462A4642EB03033D934FF0000229
:1033D0004FF00003DDE93C6739468B00314643EA94
:1033E000917331468A0010461946034622469B18BF
:1033F00022932B460A4642EB03032393DDE948233D
:10340000DDE9220100F03AFE02460B46CDE94423F5
:10341000439BB3F916301BB2DA1724932592DDE9EA
:1034200044234FF000004FF00001500B40EAC3402E
:103430005913DDE924452B4600FB03F2234603FB29
:1034400001F313442246A2FB00210B910A920B9A2E
:1034500013440B93DDE944234FF000004FF00001CB
:10346000500B40EAC3405913DDE90A452B4600FBE7
:1034700003F2234603FB01F313442246A2FB00217F
:103480000D910C920D9A13440D934FF000024FF0E2
:103490000003DDE90C4521464A0E294642EAC112E5
:1034A00029464B16CDE94823439BB3F914301BB290
:1034B000DA1726932792449BDDE926452A4602FB2C
:1034C00003F2459B214601FB03F31344449A214632
:1034D000A2FB01210F910E920F9A13440F934FF00C
:1034E00000024FF00003DDE90E452146CA0C2946D3
:1034F00042EA41322946CB14CDE94623DDE94401B5
:10350000DDE948238418289441EB03032993DDE97E
:103510004623DDE92845214689182A91294643EBAF
:1035200001012B914FF000004FF00001DDE92A4529
:103530002346180A2B4640EA03602B461912439B88
:10354000B3F912301BB2DA172C932D924FF0000210
:103550004FF00003DDE92C56344623012C4643EAA4
:1035600014732C46220184183E9441EB03033F93CD
:10357000DDE93E34CDE94434449B18464BB0BDE808
:10358000F08F86B0039002910192019BA3F59633D0
:103590000593029B9A03039BB3F91E301B05D21AB5
:1035A000039BB3F920301946059B01FB03F3D31AA3
:1035B00003F58043DB13039A92F922201146059A02
:1035C00001FB02F292120399097F0846059900FB5C
:1035D00001F1C91201F5004101FB02F2921202F55C
:1035E00000120399B1F91A1001FB02F202F5005220
:1035F000921302FB03F30593059BDB13059AD21389
:1036000002FB03F3DB11039A127E02FB03F31B118F
:10361000059AD31A0593059B23EAE3730593059B4B
:10362000B3F1C85FA8BF4FF0C8530593059B1B13A8
:10363000184606B0704700B58DB003900291019214
:103640000093039B93F83230602B07D0009B002B34
:1036500002D0009B00221A6000230093009B002BE5
:1036600001D0082300E006230B930B9BDBB206AAD4
:10367000F7210398FFF7CBFA0346002B01D0002374
:103680003FE09DF818301A039DF819301B011343D1
:103690009DF81A201209D2B213430A939DF81B30E9
:1036A0001A039DF81C301B0113439DF81D201209BD
:1036B000D2B21343099305AB1A4609990398FFF751
:1036C000D9FC0246029B1A60059B1A460A99039888
:1036D000FFF704FD0246019B1A60009B002B0FD0F0
:1036E0009DF81E301B029DF81F2013430893059B75
:1036F0001A4608990398FFF744FF0246009B1A6098
:10370000012318460DB000BD00B589B003900291A9
:1037100001920093009B002B01D005AB00E0002339
:1037200006AA07A90398FFF786FF0346002B28D0B7
:10373000079B07EE903AB8EEE77ADFED146AC7EE22
:10374000267A029BC3ED007A069B07EE903AB8EE0C
:10375000677ADFED0F6AC7EE267A019BC3ED007A28
:10376000009B002B0BD0059B07EE903AB8EE677AD2
:10377000DFED086AC7EE267A009BC3ED007A0123CD
:1037800000E00023184609B000BD00BF0000C84299
:1037900000008043000080440000000000000000A2
:1037A00001F0FF01102A2BDB10F0070F08D010F8F2
:1037B000013B013A8B422DD010F0070F42B3F6D1F6
:1037C000F0B441EA012141EA014122F007047FF00F
:1037D00000070023F0E80256083C85EA010586EA66
:1037E000010685FA47F5A3FA87F586FA47F6A5FAA2
:1037F00087F68EB9EED1F0BC01F0FF0102F00702AE
:1038000032B110F8013B013A83EA010313B1F8D158
:103810000020704701387047002D06BF3546033839
:10382000073815F0010F07D1013015F4807F02BF72
:10383000013015F4C03F0130F0BC0138704700BFC3
:1038400081F0004102E000BF83F0004330B54FEA51
:1038500041044FEA430594EA050F08BF90EA020FBE
:103860001FBF54EA000C55EA020C7FEA645C7FEA51
:10387000655C00F0E2804FEA5454D4EB5555B8BF74
:103880006D420CDD2C4480EA020281EA030382EAE5
:10389000000083EA010180EA020281EA0303362D77
:1038A00088BF30BD11F0004F4FEA01314FF4801C4A
:1038B0004CEA113102D0404261EB410113F0004F5C
:1038C0004FEA03334CEA133302D0524263EB430313
:1038D00094EA050F00F0A780A4F10104D5F1200EB1
:1038E0000DDB02FA0EFC22FA05F2801841F100010C
:1038F00003FA0EF2801843FA05F359410EE0A5F1E0
:1039000020050EF1200E012A03FA0EFC28BF4CF010
:10391000020C43FA05F3C01851EBE37101F00045C6
:1039200007D54FF0000EDCF1000C7EEB00006EEBD3
:103930000101B1F5801F1BD3B1F5001F0CD349085D
:103940005FEA30004FEA3C0C04F101044FEA4452B4
:1039500012F5800F80F09A80BCF1004F08BF5FEA3B
:10396000500C50F1000041EB045141EA050130BD1B
:103970005FEA4C0C404141EB0101013C28BFB1F52D
:10398000801FE9D291F0000F04BF01460020B1FA78
:1039900081F308BF2033A3F10B03B3F120020CDA4B
:1039A0000C3208DD02F1140CC2F10C0201FA0CF029
:1039B00021FA02F10CE002F11402D8BFC2F1200C8E
:1039C00001FA02F120FA0CFCDCBF41EA0C01904044
:1039D000E41AA2BF01EB0451294330BD6FEA04048D
:1039E0001F3C1CDA0C340EDC04F11404C4F1200278
:1039F00020FA04F001FA02F340EA030021FA04F38A
:103A000045EA030130BDC4F10C04C4F1200220FAE0
:103A100002F001FA04F340EA0300294630BD21FA1E
:103A200004F0294630BD94F0000F83F4801306BFE4
:103A300081F480110134013D4EE77FEA645C18BFD8
:103A40007FEA655C29D094EA050F08BF90EA020F6F
:103A500005D054EA000C04BF1946104630BD91EA67
:103A6000030F1EBF0021002030BD5FEA545C05D16A
:103A70004000494128BF41F0004130BD14F58004A9
:103A80003CBF01F5801130BD01F0004545F0FE411D
:103A900041F470014FF0000030BD7FEA645C1ABF52
:103AA000194610467FEA655C1CBF0B46024650EA89
:103AB000013406BF52EA033591EA030F41F40021B5
:103AC00030BD00BF90F0000F04BF0021704730B53B
:103AD0004FF4806404F132044FF000054FF0000110
:103AE00050E700BF90F0000F04BF0021704730B5D1
:103AF0004FF4806404F1320410F0004548BF4042A6
:103B00004FF000013EE700BF42004FEAE2014FEAFA
:103B100031014FEA02701FBF12F07F4393F07F4FD5
:103B200081F06051704732F07F4208BF704793F0D8
:103B30007F4F04BF41F40021704730B54FF46074EB
:103B400001F0004521F000411CE700BF50EA0102EE
:103B500008BF704730B54FF000050AE050EA010297
:103B600008BF704730B511F0004502D5404261EB07
:103B700041014FF4806404F132045FEA915C3FF448
:103B8000D8AE4FF003025FEADC0C18BF03325FEAE5
:103B9000DC0C18BF033202EBDC02C2F1200300FA96
:103BA00003FC20FA02F001FA03FE40EA0E0021FABB
:103BB00002F11444BDE600BF70B54FF0FF0C4CF4A9
:103BC000E06C1CEA11541DBF1CEA135594EA0C0F5B
:103BD00095EA0C0F00F0DEF82C4481EA030621EA96
:103BE0004C5123EA4C5350EA013518BF52EA0335D1
:103BF00041F4801143F4801338D0A0FB02CE4FF083
:103C00000005E1FB02E506F00042E0FB03E54FF0B2
:103C10000006E1FB03569CF0000F18BF4EF0010EAA
:103C2000A4F1FF04B6F5007F64F5407404D25FEAA6
:103C30004E0E6D4146EB060642EAC62141EA555159
:103C40004FEAC52040EA5E504FEACE2EB4F1FD0C9B
:103C500088BFBCF5E06F1ED8BEF1004F08BF5FEA19
:103C6000500E50F1000041EB045170BD06F00046CB
:103C700046EA010140EA020081EA0301B4EB5C0478
:103C8000C2BFD4EB0C0541EA045170BD41F4801170
:103C90004FF0000E013C00F3AB8014F1360FDEBF95
:103CA000002001F0004170BDC4F10004203C35DA71
:103CB0000C341BDC04F11404C4F1200500FA05F3F4
:103CC00020FA04F001FA05F240EA020001F0004295
:103CD00021F0004110EBD37021FA04F642EB06010B
:103CE0005EEA430E08BF20EAD37070BDC4F10C0435
:103CF000C4F1200500FA04F320FA05F001FA04F2F9
:103D000040EA020001F0004110EBD37041F10001E4
:103D10005EEA430E08BF20EAD37070BDC4F12005EF
:103D200000FA05F24EEA020E20FA04F301FA05F257
:103D300043EA020321FA04F001F0004121FA04F2FF
:103D400020EA020000EBD3705EEA430E08BF20EACF
:103D5000D37070BD94F0000F0FD101F00046400009
:103D600041EB010111F4801F08BF013CF7D041EA8B
:103D7000060195F0000F18BF704703F0004652008F
:103D800043EB030313F4801F08BF013DF7D043EA60
:103D90000603704794EA0C0F0CEA135518BF95EA16
:103DA0000C0F0CD050EA410618BF52EA4306D1D19D
:103DB00081EA030101F000414FF0000070BD50EABC
:103DC000410606BF1046194652EA430619D094EA46
:103DD0000C0F02D150EA013613D195EA0C0F05D130
:103DE00052EA03361CBF104619460AD181EA030184
:103DF00001F0004141F0FE4141F470014FF000003C
:103E000070BD41F0FE4141F4780170BD70B54FF0D6
:103E1000FF0C4CF4E06C1CEA11541DBF1CEA135556
:103E200094EA0C0F95EA0C0F00F0A7F8A4EB050438
:103E300081EA030E52EA03354FEA013100F088802F
:103E40004FEA03334FF0805545EA131343EA1263F8
:103E50004FEA022245EA111545EA10654FEA0026AD
:103E60000EF000419D4208BF964244F1FD0404F566
:103E7000407402D25B084FEA3202B61A65EB0305C2
:103E80005B084FEA32024FF480104FF4002CB6EB7F
:103E9000020E75EB030E22BFB61A754640EA0C00FF
:103EA0005B084FEA3202B6EB020E75EB030E22BF3F
:103EB000B61A754640EA5C005B084FEA3202B6EB80
:103EC000020E75EB030E22BFB61A754640EA9C003F
:103ED0005B084FEA3202B6EB020E75EB030E22BF0F
:103EE000B61A754640EADC0055EA060E18D04FEACD
:103EF000051545EA16754FEA06164FEAC30343EA6D
:103F000052734FEAC2025FEA1C1CC0D111F4801F39
:103F10000BD141EA00014FF000004FF0004CB6E732
:103F200011F4801F04BF01430020B4F1FD0C88BFD1
:103F3000BCF5E06F3FF6AFAEB5EB030C04BFB6EBDC
:103F4000020C5FEA500C50F1000041EB045170BDCF
:103F50000EF0004E4EEA113114EB5C04C2BFD4EBFC
:103F60000C0541EA045170BD41F480114FF0000E80
:103F7000013C90E645EA060E8DE60CEA135594EAFC
:103F80000C0F08BF95EA0C0F3FF43BAF94EA0C0FFF
:103F90000AD150EA01347FF434AF95EA0C0F7FF474
:103FA00025AF104619462CE795EA0C0F06D152EAC8
:103FB00003353FF4FDAE1046194622E750EA4106AC
:103FC00018BF52EA43067FF4C5AE50EA41047FF4BD
:103FD0000DAF52EA43057FF4EBAE12E74FEA410220
:103FE000B2F1E04324BFB3F5001CDCF1FE5C0DD957
:103FF00001F0004C4FEAC0024CEA5070B2F1004FA1
:1040000040EB830008BF20F00100704711F0804FA3
:1040100021D113F13872BCBF01F00040704741F468
:1040200080114FEA5252C2F11802C2F1200C10FA6C
:104030000CF320FA02F018BF40F001004FEAC12350
:104040004FEAD32303FA0CFC40EA0C0023FA02F3F4
:104050004FEA4303CCE77FEA625307D150EA0133CA
:104060001EBF4FF0FE4040F44000704701F000409A
:1040700040F0FE4040F40000704700BF7BB972B9C9
:104080000029BEBF00204FF0004106E008BF002815
:104090001CBF6FF000414FF0FF3000F0BBB9ADF135
:1040A000080C6DE904CE002909DB002B1ADB00F0B7
:1040B00035F8DDF804E0DDE9022304B07047404242
:1040C00061EB4101002B1BDB00F028F8DDF804E078
:1040D000DDE9022304B0404261EB4101524263EB4F
:1040E00043037047524263EB430300F017F8DDF8D7
:1040F00004E0DDE9022304B0404261EB4101704776
:10410000524263EB430300F009F8DDF804E0DDE917
:10411000022304B0524263EB430370472DE9F0479A
:10412000089D0F4604468C46002B48D18A4216460D
:1041300061D9B2FA82F34BB1C3F1200201FA03FC58
:1041400020FA02F29E4042EA0C0C9C404FEA164EC6
:10415000B7B2BCFBFEF1220C0EFB11CC42EA0C42C2
:1041600001FB07F0904209D9B21801F1FF3C80F041
:10417000EE80904240F2EB8002393244121AA4B22F
:10418000B2FBFEF00EFB102244EA024400FB07F7EC
:10419000A74209D9341900F1FF3280F0DA80A74232
:1041A00040F2D7803444023840EA0140E41B002149
:1041B0001DB1DC400023C5E90043BDE8F0878B4218
:1041C00006D90DB1C5E9000100210846BDE8F08718
:1041D000B3FA83F1002948D1BB4202D3824200F2F4
:1041E0000781841A67EB030201209446002DE4D076
:1041F000C5E9004CE1E7002A00F09280B2FA82F3B0
:10420000002B40F0A8808A1A4FEA164E1FFA86FC4F
:104210000121200CB2FBFEF70EFB172240EA0242FE
:104220000CFB07F0904207D9B21807F1FF3802D211
:10423000904200F2E2804746121AA4B2B2FBFEF0AE
:104240000EFB102244EA02440CFB00FCA44507D9F3
:10425000341900F1FF3202D2A44500F2CB8010469F
:10426000A4EB0C0440EA0740A2E7C1F120068B4012
:1042700022FA06FC4CEA030C07FA01F420FA06F3D2
:10428000F7404FEA1C49234300FA01F81FFA8CFE5D
:10429000B7FBF9F01C0C09FB107744EA074400FB5C
:1042A0000EF7A74202FA01F20AD91CEB040400F14E
:1042B000FF3A80F09B80A74240F298800238644425
:1042C000E41B9FB2B4FBF9F309FB134447EA04442F
:1042D00003FB0EFEA64509D91CEB040403F1FF37CE
:1042E00080F08280A6457FD9023B644443EA0040C7
:1042F000A4EB0E04A0FB02E7BC427346B94663D3AD
:1043000060D05DB1B8EB030264EB090404FA06F671
:1043100022FA01F31E43CC40C5E9006400214CE7BA
:104320006208480842EAC1710B0C43EA00438AB2B2
:1043300042EA0342B3FBF6F1E407B4463746B64619
:104340001F23B0FBF6F0D21B41EA004161E7614652
:1043500014E7104628E7C3F1200120FA01F29E403D
:1043600027FA01F19F403A434FEA164E1FFA86FCA6
:10437000B1FBFEF70EFB1710110C41EA004107FBE1
:104380000CF8884504FA03F43AD9711807F1FF30A4
:1043900001D288451FD8A1EB0801B1FBFEF808FB4C
:1043A0000CF70EFB181192B242EA0142BA422FD228
:1043B000B21808F1FF31C6D2BA42C4D2A8F1020144
:1043C0003244C0E7F0459CD2BEEB020367EB0C071A
:1043D0000138B94695E7A6EB08084144B81EB1FB81
:1043E000FEF808FB0CF7DCE73B467FE7504667E743
:1043F0000846FBE63444023832E7023F32441BE70A
:10440000A1EB08013846B1FBFEF808FB0CF7C8E742
:10441000414698E7704700BF0D480E490E4A914249
:1044200004D050F8044B41F8044BF8E70B480C4912
:104430004FF00002884202D040F8042BFAE7FBF765
:10444000DFFE00F047F8FEF744FAFFF7FEBF00007A
:104450001457000800000020180100201801002057
:10446000E0050020FEE700000CB430B5184B0C1E30
:104470001D689DB008DA8B232B604FF0FF301DB014
:10448000BDE8304002B070474FF40273ADF814300D
:104490004FF000031B9314BF04F1FF332346049332
:1044A00007934FF6FF7302900690ADF81630209AEE
:1044B00021AB02A92846019300F08AF9431CBCBF36
:1044C0008B232B60002CDAD0029B00221A70D6E7D7
:1044D000C800002070B50D4B0D4D5B1B9C100026D5
:1044E000A64209D100F07CFC0A4D0B4B5B1B9C10D3
:1044F0000026A64205D170BD55F8043B9847013609
:10450000EEE755F8043B98470136F2E70C570008F0
:104510000C5700080C5700081057000870477047E8
:1045200038B50546002941D051F8043C0C1F002B3A
:10453000B8BFE41800F0E0F81D4A136833B96360AF
:1045400014602846BDE8384000F0DCB8A34208D922
:10455000206821188B4201BF19685B680918216027
:10456000EDE71A465B680BB1A342FAD911685018FF
:10457000A0420BD120680144501883421160E0D161
:1045800018685B68536008441060DAE702D90C23AE
:104590002B60D6E7206821188B4204BF19685B683E
:1045A000636004BF091821605460CAE738BD00BFCA
:1045B000D805002070B50F4E0C463168054611B97C
:1045C00000F0ACFB30602146284600F0A7FB431CFE
:1045D00003D14FF0FF34204670BDC41C24F0030407
:1045E000A042F8D0211A284600F098FB0130F2D101
:1045F000EFE700BFD40500202DE9F843CD1C25F0DE
:10460000030508350C2D38BF0C25002D064601DBAF
:10461000A94204D90C2333600020BDE8F883DFF8F9
:10462000D48000F069F8D8F800301C4644BB294615
:104630003046FFF7BFFF431C044658D1D8F800406E
:104640002746002F43D1002C4BD0236839463046F3
:1046500004EB030900F062FB814542D121686D1A29
:1046600029463046FFF7A6FF01303AD023682B4495
:104670002360D8F800305A6862BBC8F800700FE0B9
:104680002268521B20D40B2A17D96119A342256036
:1046900018BF5960636808BFC8F8001062514B60CA
:1046A000304600F02FF804F10B00231D20F0070026
:1046B000C21A1CBF1B1AA350AFE76268A3420CBF0B
:1046C000C8F800205A60EBE723466468AEE73C4632
:1046D0007F68B6E71A465B68A342FBD100235360AC
:1046E000DEE70C233360304600F00CF894E70560F9
:1046F000D6E700BFD80500200148FFF70FBF00BF75
:10470000D00500200148FFF70ABF00BFD0050020F8
:104710002DE9F0478E681F46BE4282460C46904601
:10472000334653D8B1F90C0010F4906F2BD0656963
:104730002368096905EB4505A3EB010905EBD57570
:104740007B1C6D104B44AB422A4684BF1D462A4653
:10475000430527D511465046FFF74EFF064658B38E
:1047600021694A4600F0EAFAA38923F4906343F0F2
:104770008003A381266165614E44A5EB090526608F
:10478000A5603E463B461F4620683A46414600F03B
:10479000ABFAA3689B1BA36023683B442360002003
:1047A000BDE8F087504600F0D7FA06460028E1D170
:1047B00021695046FFF7B4FE0C23CAF80030A389E4
:1047C00043F04003A3814FF0FF30E9E73E46DBE7CB
:1047D0002DE9F0471F468B891B069CB006460D4607
:1047E000144610D50B6973B94021FFF705FF286007
:1047F000286130B90C2333604FF0FF301CB0BDE8A6
:10480000F08740236B610023099320238DF8293022
:1048100003973023654F8DF82A304FF00108234667
:10482000994613F8012B0AB1252AF9D1B9EB040AEC
:104830000BD05346224629463046FFF769FF013028
:1048400000F0A480099A5244099299F80030002B94
:1048500000F09C8000234FF0FF32CDE9052309F1E1
:104860000109049307938DF853301A934C464F482F
:1048700014F8011B0522FEF793FF049BD0B9D8065C
:1048800044BF20228DF85320190744BF2B228DF8F6
:10489000532099F800202A2A13D0079A4C4600206A
:1048A0004FF00A0C214611F8013B303B092B49D946
:1048B00068B913E0C01B08FA00F018430490A14641
:1048C000D4E7039A111D12680391002A01DB0792B5
:1048D00004E0524243F002030792049323782E2B04
:1048E0000AD163782A2B32D1039B1A1D1B680392CD
:1048F00043EAE37302340593DFF8C0902178032282
:104900004846FEF74DFF38B1049BA0EB090040225A
:10491000824013430134049314F8011B24488DF89A
:1049200028100622FEF73CFF002835D0214818BB8E
:10493000039B073323F0070308330393099B0344C6
:1049400009936CE70CFB02320C460120AAE7002316
:104950000134059319464FF00A0C204610F8012B3C
:10496000303A092A03D9002BC6D00591C4E70CFBC5
:10497000012104460123F0E703AB00932A460E4BC6
:1049800004A93046AFF30080421CD7D1AB895B0647
:104990003FF532AF099831E703AB00932A46064B47
:1049A00004A9304600F07AF8EEE700BFD0560008C0
:1049B000DA5600080000000011470008D65600082B
:1049C0002DE9F047164698468A680B69DDF8209075
:1049D0009342B8BF1346336091F8432007460C4614
:1049E0000AB1013333602368990642BF336802334A
:1049F0003360256815F0060506D104F1190AE3684D
:104A000032689B1AAB4226DC94F843302268003BA4
:104A100018BF012392062BD404F1430241463846C5
:104A2000C84701301ED02368226903F00603042B17
:104A300002BFE5683368ED1AA3680CBF25EAE57587
:104A400000259342C4BF9B1AED1800261A34B542C4
:104A50001AD1002008E00123524641463846C84793
:104A6000013003D14FF0FF30BDE8F0870135C6E7D4
:104A7000E1185A1C302081F84300224494F8451074
:104A800082F843100233C7E70123224641463846E5
:104A9000C8470130E6D00136D9E700002DE9F043E0
:104AA0000D7E85B0782D90460C9E07460C469946A3
:104AB00001F1430207D8622D0AD8002D00F0D780FB
:104AC000582D00F0BC8004F1420684F842503BE0CF
:104AD000A5F16303152BF6D801A151F823F000BF0F
:104AE000394B00084D4B0008C74A0008C74A000868
:104AF000C74A0008C74A00084D4B0008C74A0008CB
:104B0000C74A0008C74A0008C74A0008554C0008B1
:104B1000774B0008074C0008C74A0008C74A00083E
:104B2000774C0008C74A0008774B0008C74A0008BE
:104B3000C74A00080F4C000833681A1D1B68326012
:104B400004F1420684F842300123A1E03368206872
:104B5000191D3160060601D51D6803E04506FBD529
:104B6000B3F90050002D03DA2D236D4284F8433051
:104B70005B480A2311E021683368080653F8045B98
:104B800002D4490648BFADB23360237E54486F2B30
:104B90005CD10823002184F843106668A660002ECB
:104BA00005DB21682E4321F00401216050D0164618
:104BB000B5FBF3F103FB115C10F80CC006F801CD56
:104BC000AC4663450D46F3D9082B0BD12368DB07B0
:104BD00008D5236961689942DEBF302306F8013C9D
:104BE00006F1FF36921B2261CDF80090434603AADE
:104BF00021463846FFF7E4FE01304ED14FF0FF303A
:104C000005B0BDE8F083236843F0200323603548F6
:104C1000782584F845502368316813F0800F51F8E7
:104C2000045B03D113F0400F18BFADB23160D90758
:104C300044BF43F0200323601DB11023AAE7284896
:104C4000E7E7236823F020032360F6E70A23A1E7C0
:104C50001646B9E7336825686169181D30602E066D
:104C60001B6801D5196002E06806FBD51980002396
:104C700023611646B8E733681A1D32601E68626801
:104C800000213046FEF78CFD08B1801B6060636830
:104C90002361002384F84330A6E723693246414666
:104CA0003846C8470130A9D023689B0713D4E06871
:104CB000039B9842B8BF1846A2E7012332464146FB
:104CC0003846C847013099D00135E36803995B1A2B
:104CD000AB42F2DCEBE7002504F11906F5E700BF73
:104CE000E1560008F2560008884210B501EB0204B4
:104CF00002D98442234607D8431EA14207D011F8A7
:104D0000012B03F8012FF8E70244824200D110BDC5
:104D100013F8011D02F8011DF7E7000038B5064D34
:104D20000023044608462B6000F04CF8431C02D1D7
:104D30002B6803B1236038BDCC0500200A449142A2
:104D400000F1FF3300D1704710B511F8014B03F8A3
:104D5000014F9142F9D110BD2DE9F04107461446AB
:104D60000D4621B9BDE8F0411146FFF745BC2AB90F
:104D7000FFF7D6FB25462846BDE8F08100F01AF87B
:104D80008442064602D8B4EB500FF4D82146384688
:104D9000FFF732FC804608B94546ECE7B4422246AC
:104DA000294628BF3246FFF7C9FF29463846FFF794
:104DB000B7FBF1E751F8043C181F002BBCBF0B58A0
:104DC000C0187047044A05491368002B08BF0B46FA
:104DD0001844106018467047DC050020E0050020EC
:104DE000F8B500BFF8BC08BC9E467047F8B500BFD8
:084DF000F8BC08BC9E467047A8
:104DF8003E410C41114127413641034106411541CD
:104E08000F410E41264113412941024119410A41EE
:104E18000B41000000E000E000ED00E010E000E0E1
:104E280000E100E0000000E0001000E0000004E005
:104E3800F0ED00E090ED00E030EF00E00000004011
:104E48000004004000080040000C0040002800401A
:104E5800002C004000300040003400400038004082
:104E6800003C004000400040004400400054004026
:104E780000580040005C0040007000400000014005
:104E880000100140001401400020014000230140AF
:104E9800002C01400030014000340140003801403E
:104EA800003C0140004001400044014000480140EE
:104EB8000050014000000240000402400008024087
:104EC800000C024000100240001C0240003002406A
:104ED80000380240003C024000600240106002407E
:104EE8002860024040600240586002407060024002
:104EF80088600240A0600240B8600240006402403E
:104F08001064024028640240406402405864024031
:104F18007064024088640240A0640240B8640240A1
:104F2800002004E000000050000000000000000025
:104F38000102030406070809130909020500000015
:104F48000000000000000000000000000000000257
:104F580000009E00000000000000000000000000AB
:104F68000000040000060000000600000000000029
:104F780000000000000600005000F8005000F80093
:104F880050000000000000000600008C009200FEA7
:104F980001A2004000000000000000071E0092006F
:104FA8005E002000F8009400F200000000000700F6
:104FB8000064009A00AA00CC006000800000000095
:104FC80000020000060000000000000000000000D1
:104FD800000000000300007C0083010000000000C6
:104FE8000000000000000003000083017C000000B6
:104FF80000000000000000000000040000300078FD
:105008000030000000000000000000000005100053
:1050180010007C00100010000000000000000000DC
:10502800020001C0000000000000000000000000B5
:105038000000000400001000100010000000000034
:1050480000000000000002000080000000000000D6
:10505800000000000000000000040001E0001C0047
:105068000300000000000000000000000500007CB4
:1050780000820082007C00000000000000000005A3
:10508800000008000400FE0000000000000000000E
:1050980000000500008400C200A2009C000000007F
:1050A80000000000000500008200920092006C00E1
:1050B800000000000000000005000038002C00225D
:1050C80000FE0000000000000000000500009E0037
:1050D800920092006200000000000000000005003D
:1050E800007C0092009200740000000000000000A4
:1050F800000500000200C20032000E00000000009F
:10510800000000000500006C00920092006C000096
:10511800000000000000000500009C0092009200C2
:105128007C00000000000000000002000088000071
:105138000000000000000000000000000002000164
:10514800C80000000000000000000000000000008F
:10515800051000100028002800440000000000008E
:105168000000000500002800280028002800000092
:10517800000000000000050000440028002800107E
:105188000000000000000000000500000200B2005E
:1051980012000C000000000000000000090000F8E8
:1051A80000840172014A014A017A0142003C00066A
:1051B8000000F800240022002400F800000000008D
:1051C8000000060000FE009200920092006C0000B1
:1051D80000000000000600007C00820082008200BF
:1051E8004400000000000000060000FE008200826B
:1051F80000C6007C00000000000000050000FE0062
:1052080092009200920000000000000000000500DB
:1052180000FE001200120012000000000000000052
:10522800000600007C00C60082009200F600000024
:1052380000000000060000FE00100010001000FE34
:1052480000000000000000020000FE000000000056
:105258000000000000000000000004000080008042
:10526800007E0000000000000000000000050000B3
:10527800FE0010002C00C20000000000000000002A
:10528800050000FE00800080008000000000000093
:10529800000000080000FE0006001800E0001800EA
:1052A8000600FE000000060000FE00060018006070
:1052B80000FE000000000000000600007C008200E4
:1052C800820082007C00000000000000050000FE53
:1052D80000120012000C000000000000000000078F
:1052E80000007C0082008200C200FC000001000077
:1052F8000000050000FE0012001200EC0000000093
:105308000000000000050000CC009200920066003A
:10531800000000000000000006000002000200FE7D
:1053280000020002000000000000000600007E00ED
:105338008000800080007E00000000000000070060
:105348000006003C00E000E0001C00060000000031
:10535800000600001E00E0003E00E0001E00000005
:10536800000000000600008200640038006C008223
:105378000000000000000006000002000C00F00021
:105388000C0002000000000000000600008200E29D
:105398000092008E00820000000000000003000060
:1053A800FF010101000000000000000000000000F3
:1053B8000401000E007000800100000000000000E1
:1053C800000000020101FF010000000000000000D1
:1053D80000000000000004000018000C0018000085
:1053E80000000000000000000006000100010001AC
:1053F800000100010001000000000000030000019E
:10540800000200000000000000000000000000058D
:105418000000E800A800A800F80000000000000054
:105428000000050000FE00880088007000000000F1
:105438000000000000050000700088008800880057
:1054480000000000000000000500007000880088CF
:1054580000FE0000000000000000000500007000D1
:10546800A800A800B0000000000000000000040828
:1054780000FE000A0002000000000000000000001A
:1054880000050000300048014801F8010000000054
:1054980000000000050000FE0008000800F80000F9
:1054A80000000000000000020000FA0000000000F8
:1054B80000000000000000000000020001FA0100E6
:1054C80000000000000000000000000000050000CF
:1054D800FE002000500088000000000000000000CE
:1054E800020000FE000000000000000000000000B4
:1054F800000000060000F8000800F8000800F800A6
:10550800000000000000050000F80008000800F88E
:105518000000000000000000000500007000880086
:10552800880070000000000000000000050000F87E
:10553800014800480030000000000000000000059D
:105548000000300048004800F8010000000000009A
:105558000000040000F80008000800000000000037
:1055680000000000000400009800A800E800000007
:1055780000000000000000000400000800FC008893
:105588000000000000000000000000050000780096
:1055980080008000F8000000000000000000040007
:1055A800003800C0003800000000000000000000C3
:1055B800000600007800C0003800C0007800000035
:1055C80000000000050000880070007000880000DE
:1055D8000000000000000005000038004001400104
:1055E800F8000000000000000000050000C800E806
:1055F80000B800880000000000000000000410004F
:105608003800EF0101010000000000000000000068
:105618000300000000FF010000000000000000007F
:10562800000000040101C70138001000000000005C
:10563800000000000000050C0004000C0008000C2D
:1056480000000000000000000003FE010201FE014E
:105658000000000000000000000000005541525406
:10566800204F4B0D0A00000049324320494E49544F
:10567800204F4B0D0A000000424D50323830204672
:1056880041494C0D0A000000424D50323830204F3D
:105698004B0D0A00256C753B252E32663B252E32B4
:1056A800660D0A003E410C41114127413641034134
:1056B800064115410F410E4126411341294102413E
:1056C80019410A410B410000232D302B2000686C42
:1056D8004C0065666745464700303132333435360D
:1056E8003738394142434445460030313233343546
:0C56F80036373839616263646566000073
:085704009CE0FF7F01000000A2
:04570C00C5010008CB
:04571000A1010008EB
:105714000024F4000100000000000000000000006C
:105724000000000000000000000000000000000075
:1057340002016000080202000005040103000000E9
:10574400006CDC02001BB70000366E010201500140
:1057540008040700000400020200000000BD010567
:1057640080DE800200BD01050201C00008020200C3
:10577400000400030300000000D8B805006CDC023C
:1057840000D8B80500000000000000000000000080
:105794000000000000000000000000000000000005
:1057A4000200500108040700000400020200000087
:1057B40000BD010580DE800200BD010530313233B9
:1057C40034353637383941424344454600000000F9
:1057D4001000000001000000CC00002000000000C8
:1057E40094040020FC040020640500200000000054
:1057F40000000000000000000000000000000000A5
:105804000000000000000000000000000000000094
:105814000000000000000000000000000000000084
:0858240000000000000000007C
:040000050800441992
:00000001FF
