:020000040800F2
:100000000000022085480008E1010008E501000821
:10001000E9010008ED010008F101000800000000FE
:10002000000000000000000000000000F5010008D2
:10003000F901000800000000FD0100087D2800080B
:10004000D1480008D1480008D1480008D14800082C
:10005000D1480008D1480008F72800080329000803
:10006000D1480008D1480008EB280008D148000812
:10007000D1480008D1480008D1480008D1480008FC
:10008000D1480008D1480008D1480008000000000D
:10009000000000000000000000000000D14800083F
:1000A000D1480008D1480008D1480008D1480008CC
:1000B000D1480008D1480008D1480008BD280008F0
:1000C000CD280008D1480008D14800080F290008B1
:1000D000D14800089D280008AD2800080000000055
:1000E000DD280008D1480008D148000800000000C1
:1000F000000000000000000000000000D1480008DF
:1001000000000000D14800088B280008D1480008F2
:1001100000000000000000000000000000000000DF
:10012000D1480008D1480008D1480008D14800084B
:10013000D14800080000000000000000000000009E
:10014000000000000000000000000000D14800088E
:10015000D1480008D1480008D1480008D14800081B
:10016000D1480008D148000800000000000000004D
:10017000000000000000000000000000000000007F
:1001800000000000D148000800000000000000004E
:08019000D1480008D148000825
:1001A00010B5054C237833B9044B13B10448AFF3B1
:1001B00000800123237010BD900200200000000089
:1001C0004876000808B5034B1BB103490348AFF359
:1001D000008008BD0000000094020020487600085E
:1001E00000BF704700BFFDE700BFFDE700BFFDE7B0
:1001F00000BFFDE700BF704700BF704700BF7047FA
:1002000008B5184BD3F88830164A43F47003C2F887
:100210008830154B1B68144A43F001031360124BDE
:1002200000229A60104B1B680F4A23F0847323F45A
:10023000803313600C4B0D4A5A600B4B1B680A4A03
:1002400023F480231360084B0022DA60084902205F
:1002500000F094F9034B4FF000629A6000F00AF846
:1002600000BF08BD00ED00E000380240103000245F
:10027000AC02002086B000230493002305930223E0
:1002800003930023029302230193334B9B6803F0F3
:100290000C030493049B082B11D0049B082B44D817
:1002A000049B002B03D0049B042B04D03DE02B4B7C
:1002B0002B4A1A603DE0294B2A4A1A6039E0264B46
:1002C0005B689B0D03F001030293234B5B6803F013
:1002D0003F030193029B002B0CD0224A019BB2FBEF
:1002E000F3F31D4A52689209C2F3080202FB03F3BA
:1002F00005930BE01A4A019BB2FBF3F3164A5268CE
:100300009209C2F3080202FB03F30593124B5B68E8
:100310001B0C03F0030301335B000393059A039B5B
:10032000B2FBF3F30D4A136003E00C4B0C4A1A6066
:1003300000BF094B9B681B0903F00F030A4AD35CFB
:100340000493064B1A68049B22FA03F3034A1360D2
:1003500000BF06B0704700BF003802400000002018
:100360000024F40000127A009877000882B0034657
:100370008DF807309DF80730052B00F2928001A21E
:1003800052F823F09D030008C5030008ED030008A0
:10039000150400083D04000865040008424B1B6872
:1003A00003F00103002B71D13F4B1B683E4A43F021
:1003B0000103136000BF3C4B1B6803F00203002BDA
:1003C000F9D063E0384B1B6803F48033002B5FD116
:1003D000354B1B68344A43F45023136000BF324B43
:1003E0001B6803F40033002BF9D051E02E4B1B683F
:1003F00003F08073002B4DD12B4B1B682A4A43F02E
:100400008073136000BF284B1B6803F00073002B40
:10041000F9D03FE0244B1B6803F08063002B3BD1F5
:10042000214B1B68204A43F08063136000BF1E4BC2
:100430001B6803F00063002BF9D02DE01A4B5B6FB3
:1004400003F00103002B29D1174B5B6F164A43F0D1
:100450000103536700BF144B5B6F03F00203002BD3
:10046000F9D01BE0104B1B6F03F00103002B17D1D9
:100470000D4B1B6F0C4A43F00103136700BF0A4B7F
:100480001B6F03F00203002BF9D009E000BF08E066
:1004900000BF06E000BF04E000BF02E000BF00E0D4
:1004A00000BF00BF02B070470038024082B0034670
:1004B0008DF807309DF80730052B39D801A252F886
:1004C00023F000BFDD040008EB040008F904000875
:1004D000070500081505000823050008164B1B68D2
:1004E000154A23F00103136022E0134B1B68124AE4
:1004F00023F4502313601BE00F4B1B680E4A23F0BC
:100500008073136014E00C4B1B680B4A23F080636C
:1005100013600DE0084B5B6F074A23F0010353673C
:1005200006E0054B1B6F044A23F00103136700BF6D
:1005300000BF02B0704700BF0038024082B00346DF
:100540008DF807300C4B9B6823F003029DF80730B1
:1005500003F00303084913438B6000BF064B9B68FD
:100560009B0803F003029DF807309A42F6D100BFC2
:1005700000BF02B0704700BF0038024000B585B030
:1005800001900091019B072B08D8019A1346DB00CC
:100590009B1A9B00694A1344039301E0684B039341
:1005A000039B1B78012B0CD10120FFF7DFFE0120FC
:1005B000FFF7C4FF0220FFF779FF0020FFF776FF67
:1005C00095E0039B1B78022B40F085805D4B1B6CF4
:1005D0005C4A43F080531364039B5B78012B09D181
:1005E0000120FFF7C3FE574B5B68564A43F4800374
:1005F000536008E00020FFF7B9FE524B5B68514A98
:1006000023F480035360504B1B6823F04052039B3C
:10061000DB7A1B074C4913430B604A4B9B6823F45E
:100620007C4323F0F003039A127A1201D2B21A43E8
:10063000039B5B7A9B0203F4E0531A43039B9B7A70
:100640005B039BB23F4913438B603E4B5A683F4B61
:100650001340039A127902F03F021A43039B5B880E
:10066000990147F6C0730B401A43039B5B795B0803
:10067000DBB2013B1B0403F440331A43039B9B7919
:100680001B0603F07C532F4913434B600220FFF7F6
:100690006DFE2F4B1B6823F00F02039BDB6803F0FA
:1006A0000F0313432A4A43F4E06313600220FFF769
:1006B00045FF039B5B78012B09D1224B1B6803F09C
:1006C0000103002B03D00020FFF7F0FE0FE0012014
:1006D000FFF7ECFE0BE00020FFF748FE0020FFF7DD
:1006E0002DFF0220FFF7E2FE0120FFF7DFFE039B54
:1006F0001A69009B1A60039B5A69009B5A60039B0E
:100700005B7A002B02D1039B5B6902E0039B5B6970
:100710005B00009A9360039B9A69009BDA60039BDD
:100720009B7A002B02D1039B9B6902E0039B9B6990
:100730005B00009A136100BF05B000BD04000020FB
:100740007400002000380240007000400080FCF07F
:10075000003C024010B487B00190019B1B680593D8
:10076000059B5B690493714B1B6801336F4A1360EF
:10077000049B03F00103002B09D0019B9B6A5B00E3
:10078000019A92F830201A43059B1A61C9E0049B34
:1007900003F00203002B3FD0019B93F83030002B75
:1007A0001CD1059B9B690393019BDA6A019BDB6B60
:1007B000581C0199C86313441B781A46059B1A619B
:1007C000019BDA6B019B9B6B9A4240F0AA80059BD0
:1007D0005B6823F48062059B5A60A2E0019B93F85A
:1007E0003030012B40F09D80019B5B6B012B09D1C8
:1007F000059B1B6823F48062059B1A60059B9B691F
:1008000003938EE0059B1B6843F48062059B1A608E
:10081000059B9B69039384E0049B03F08003002BFA
:1008200051D0019BDA6B019B9B6B9A4218D2019BC2
:10083000DA6A019BDB6B581C0199C86313441B786F
:100840001A46059B1A61019BDA6B019B9B6B9A42CE
:1008500067D1059B5B6823F48062059B5A6060E06A
:10086000019BDA6B019B9B6B9A425AD1049B03F06C
:100870000403002B55D0019B5B6B002B13D0019B15
:10088000012283F83020019B00221A64059B5B68DB
:1008900043F48062059B5A60059B1B6843F4A06289
:1008A000059B1A603DE0059B1B6843F40072059BA5
:1008B0001A60059B5B6823F40072059B5A60019BDC
:1008C00000225A622DE0049B03F04003002B28D045
:1008D000059B1C69019BDA6A019B1B6C581C0199E2
:1008E00008641344E2B21A70019B1A6C019B5B6BA3
:1008F000013B9A4206D1059B1B6823F48062059B4D
:100900001A600EE0019B1A6C019B5B6B9A4208D146
:10091000059B1B6843F40072059B1A60019B002233
:100920005A6200BF07B05DF8044B7047C002002058
:1009300084B00190019B1B680393039B5B69029346
:10094000029B03F48073002B0AD0039B5B6923F4A2
:100950008072039B5A61019B4FF0FF325A6229E07B
:10096000029B03F40073002B0AD0039B5B6923F402
:100970000072039B5A61019B6FF005025A6219E0F5
:10098000029B03F48063002B0AD0039B5B6923F472
:100990008062039B5A61019B6FF007025A6209E073
:1009A000039B5B6923F45F42039B5A61019B4FF0F9
:1009B000FF325A62039B1B6843F40072039B1A6068
:1009C00000BF04B0704782B00190019B1B681A6899
:1009D000019B1B6842F400421A60019B1B680022C5
:1009E0001A60224B5A68019B1B682149A1FB021225
:1009F000920C5A60019B5B68002B02D1019B1D4A3F
:100A00005A601A4B5968019B5A6813465B0013449D
:100A1000B1FBF3F2019B1B6842F40042DA61134B15
:100A20005B68134AA2FB03239B0C4FF4967202FBF4
:100A300003F3114AA2FB03239A09019B1B680132AD
:100A40001A62019B1B685A6A019B1B6822F01F02F5
:100A50005A62019B1B681A68019B1B6842F00102E5
:100A60001A600023184602B0704700BFAC02002095
:100A700083DE1B43801A0600D34D621086B00390BC
:100A800001921A460B46ADF80A301346ADF808300D
:100A9000039B01225A62BDF80A20039B9A62039BC2
:100AA000019ADA62039B00225A63BDF80820039B77
:100AB0009A63039B0022DA63039B00221A64039B60
:100AC000002283F83020039B1B685A68039B1B6835
:100AD00042F4E0625A60039B1B681A68039B1B6820
:100AE00042F480721A6000BF039B5B6A012BFBD04B
:100AF0000023059303E000BF059B01330593059B8D
:100B0000632BF8DD039B5B6A184606B0704786B01E
:100B1000039001921A460B46ADF80A301346ADF821
:100B20000830039B01225A62BDF80A20039B9A6297
:100B3000039B019ADA62BDF80820039B5A63039B6A
:100B400000229A63039B0022DA63039B00221A644B
:100B5000039B012283F83020039B1B685A68039B88
:100B60001B6842F4E0625A60039B1B681A68039B8F
:100B70001B6842F480721A6000BF039B5B6A012B02
:100B8000FBD00023059303E000BF059B01330593D1
:100B9000059B632BF8DD039B5B6A184606B0704724
:100BA00086B00390019200930B46ADF80A30039B88
:100BB00001225A62BDF80A20039B9A62039B019AA4
:100BC000DA62039B069A5A63039B009A9A63039B1B
:100BD0000022DA63039B00221A64039B002283F83D
:100BE0003020039B1B685A68039B1B6842F4E06239
:100BF0005A60039B1B681A68039B1B6842F480724F
:100C00001A6000BF039B5B6A012BFBD00023059396
:100C100003E000BF059B01330593059B632BF8DDC3
:100C2000039B5B6A184606B0704700BF00000000D7
:100C300088B0039002910192039B0693029B019A54
:100C4000B3FBF2F2019901FB02F29A1A039B591CC1
:100C500003911D498A5C1A70029A019BB2FBF3F35F
:100C60000293029B002BE9D1039B00221A70039A86
:100C7000069BD31A0593002307931CE0069A079B53
:100C800013441B788DF81330059A079BD31A013B48
:100C9000069A1A440699079B0B4412781A70059A13
:100CA000079BD31A013B069A13449DF813201A7030
:100CB000079B01330793059B5B08079A9A42DDD394
:100CC00000BF00BF08B07047AC00002086B00190A4
:100CD000009100230593019B5A1C01921B788DF80B
:100CE0000F3038E09DF80F302F2B08D99DF80F30CA
:100CF000392B04D89DF80F30303B04931EE0009B45
:100D0000102B0CD19DF80F30402B08D99DF80F30D7
:100D1000462B04D89DF80F30373B04930EE0009B20
:100D2000102B1CD19DF80F30602B18D99DF80F3077
:100D3000662B14D89DF80F30573B0493009B059AFF
:100D400002FB03F3049A13440593019B5A1C01927E
:100D50001B788DF80F309DF80F30002BC2D1059B0A
:100D6000184606B0704786B00190009100230593A5
:100D7000009B013B049318E0059B019A13441B78E8
:100D80000393049B019A1A44059B01990B44127822
:100D90001A70049B019A1344039AD2B21A70059BED
:100DA00001330593049B013B0493059A049B9A42EB
:100DB000E2DB00BF00BF06B0704700B587B003900C
:100DC00002910192002305931DE0039A1C4B83FBC3
:100DD00002139910D317C91A0B469B000B445B00F2
:100DE000D11ACAB2059B591C05911946029B0B44A6
:100DF0003032D2B21A70039B114A82FB0312921056
:100E0000DB17D31A0393039B002BDED107E0059B6E
:100E10005A1C05921A46029B134430221A70059AF6
:100E2000019B9A42F3DB05990298FFF79CFF059B13
:100E3000029A134400221A70059B184607B000BDA1
:100E40006766666600B589B003908DED020A019170
:100E5000DDED027AFDEEE77A17EE903A0793079BF5
:100E600007EE903AF8EEE77A9DED027A77EE677A30
:100E7000CDED067A002203990798FFF79EFF0590B3
:100E8000019B002B25D0059B039A13442E221A7038
:100E900001989FED110B00F023F853EC102B104636
:100EA000194603F0D1FA07EE100ADDED067A67EE77
:100EB000877ACDED067ADDED067AFDEEE77A059BC1
:100EC0000133039A1344019A194617EE900AFFF76B
:100ED00074FF00BF09B000BD000000000000244006
:100EE00000B589B08DED020B0190019B002BB8BFBE
:100EF0005B4207934FF000021C4BCDE904231BE03B
:100F0000079B03F00103002B09D0DDE90223DDE993
:100F1000040102F0C1FF02460B46CDE90423079B02
:100F20005B080793DDE90223DDE9020102F0B4FF6B
:100F300002460B46CDE90223079B002BE0D1019B23
:100F4000002B09DADDE904234FF00000074903F024
:100F5000CDF802460B4601E0DDE9042343EC172BF4
:100F6000B0EE470AF0EE670A09B000BD0000F03F9E
:100F700008B5032000F0C6FA0F2000F00DF800239A
:100F8000184608BD08B500F005F80023184608BD4E
:100F900000BF704700BF704700B583B00190124B8F
:100FA0001A68124B1B7819464FF47A73B3FBF1F3AE
:100FB000B2FBF3F3184600F0E8FA0346002B01D029
:100FC00001230EE0019B0F2B0AD8002201994FF05C
:100FD000FF3000F0A0FA064A019B1360002300E0F6
:100FE0000123184603B000BD00000020C40000200B
:100FF000C0000020044B1B781A46044B1B681344A6
:10100000024A136000BF7047C4000020C4020020E1
:10101000014B1B6818467047C4020020014B1B6837
:1010200018467047C000002000B585B003468DF813
:10103000073000238DF80F300B4B1B789DF80720ED
:101040009A420BD0084A9DF807301370074B1B6873
:101050001846FFF7A1FF03468DF80F309DF80F30BB
:10106000184605B000BD00BFC4000020C00000202D
:10107000014B1B7818467047C400002000B585B0AE
:101080000190FFF7C5FF0290019B0393039BB3F10F
:10109000FF3F05D0094B1B781A46039B134403936B
:1010A00000BFFFF7B5FF0246029BD31A039A9A428C
:1010B000F7D800BF00BF05B000BD00BFC4000020CE
:1010C000034B1B68024A23F00203136000BF704702
:1010D00010E000E0034B1B68024A43F00203136078
:1010E00000BF704710E000E0014B1846704700BF9A
:1010F00000050701024B1B681B0C1846704700BF18
:10110000002004E0024B1B68C3F30B031846704732
:10111000002004E0034B5B68024A43F00103536084
:1011200000BF7047002004E0034B5B68024A23F0D5
:101130000103536000BF7047002004E0034B5B686D
:10114000024A43F00203536000BF7047002004E0EE
:10115000034B5B68024A23F00203536000BF7047F1
:10116000002004E0034B5B68024A43F00403536031
:1011700000BF7047002004E0034B5B68024A23F085
:101180000403536000BF7047002004E0024B0122BB
:101190001A6000BF704700BF00042742024B0022C4
:1011A0001A6000BF704700BF00042742014B1B6854
:1011B00018467047107AFF1F014B1B68184670478E
:1011C000147AFF1F014B1B6818467047187AFF1FDF
:1011D00084B00190019B03F0070303930B4BDB6882
:1011E0000293029A4FF6FF0313400293039B1A02E5
:1011F000029B134343F0BF6343F400330293034A5B
:10120000029BD36000BF04B0704700BF00ED00E058
:10121000034BDB681B0A03F007031846704700BF47
:1012200000ED00E082B003468DF807309DF80730EE
:1012300003F01F0205499DF907305B09012000FA00
:1012400002F241F8232000BF02B0704700E100E045
:1012500082B003468DF807309DF8073003F01F0277
:1012600006499DF907305B09012000FA02F220339C
:1012700041F8232000BF02B0704700BF00E100E04A
:1012800082B003468DF80730084A9DF907305B09A4
:10129000403352F823209DF8073003F01F0322FA51
:1012A00003F303F00103184602B0704700E100E0C9
:1012B00082B003468DF807309DF8073003F01F0217
:1012C00006499DF907305B09012000FA02F240331C
:1012D00041F8232000BF02B0704700BF00E100E0EA
:1012E00082B003468DF807309DF8073003F01F02E7
:1012F00006499DF907305B09012000FA02F26033CC
:1013000041F8232000BF02B0704700BF00E100E0B9
:1013100082B003468DF80730084A9DF907305B0913
:10132000803352F823209DF8073003F01F0322FA80
:1013300003F303F00103184602B0704700E100E038
:1013400082B0034600918DF807309DF90730002BDD
:101350000CDA009BDAB20C499DF8073003F00F035A
:10136000043B1201D2B20B441A7609E0009BDAB2B8
:1013700006499DF907301201D2B20B4483F80023CD
:1013800000BF02B0704700BF00ED00E000E100E0E8
:1013900082B003468DF807309DF90730002B0BDA39
:1013A0000B4A9DF8073003F00F03043B13441B7EE8
:1013B000DBB21B09DBB208E0064A9DF90730134493
:1013C00093F80033DBB21B09DBB2184602B070475A
:1013D00000ED00E000E100E088B00390029101928E
:1013E000039B03F007030793079BC3F10703042B39
:1013F00028BF04230693079B0433062B02D9079BBF
:10140000033B00E0002305934FF0FF32069B02FAF6
:1014100003F3DA43029B1A40059B9A404FF0FF31D9
:10142000059B01FA03F3D943019B0B401343184674
:1014300008B0704788B00390029101920093029B1C
:1014400003F007030793079BC3F10703042B28BF8F
:1014500004230693079B0433062B02D9079B033B07
:1014600000E000230593039A059BDA404FF0FF311B
:10147000069B01FA03F3DB431A40019B1A604FF00D
:10148000FF32059B02FA03F3DA43039B1A40009BE9
:101490001A6000BF08B07047BFF34F8F00BF074B03
:1014A000DB6803F4E0620549054B1343CB60BFF3EF
:1014B0004F8F00BF00BF00BF00BFFBE700ED00E0A3
:1014C0000400FA0500B583B00190019B013BB3F124
:1014D000807F01D301230FE0094A019B013B536048
:1014E0000F214FF0FF30FFF72BFF054B00229A60D2
:1014F000034B07221A600023184603B000BD00BF4B
:1015000010E000E000B583B001900198FFF760FEA5
:1015100000BF03B000BD00B587B003460291019241
:101520008DF80F3000230593FFF772FE0590019AA6
:1015300002990598FFF750FF02469DF90F301146BA
:101540001846FFF7FDFE00BF07B000BD00B583B031
:1015500003468DF807309DF907301846FFF762FE05
:1015600000BF03B000BD00B583B003468DF807305F
:101570009DF907301846FFF76BFE00BF03B000BDB2
:1015800008B5FFF789FF00BF08BD00B583B0019023
:101590000198FFF797FF0346184603B000BDBFF35D
:1015A0005F8F00BF054B5B6A044A23F480335362AC
:1015B000034B00225A6000BF704700BF00ED00E0FF
:1015C00090ED00E082B00190094A019B43F00103D5
:1015D0005360084B5B6A074A43F480335362BFF39E
:1015E0004F8F00BFBFF36F8F00BF00BF02B07047C7
:1015F00090ED00E000ED00E082B00190019B5A7890
:101600001C4B9A60019B1B78002B29D0194A019B27
:101610005B68D360019B1B7B1A07019BDB7A1B066F
:101620001A43019B9B7ADB041A43019B5B7B9B045F
:101630001A43019B9B7B5B041A43019BDB7B1B04CE
:101640001A43019B5B7A1B021A43019B1B7A5B00C6
:101650001343019A12781146064A0B43136105E0C1
:10166000044B0022DA60034B00221A6100BF02B073
:10167000704700BF90ED00E008B5FFF7C9FD0346D5
:10168000184608BD00B585B002910192009303464B
:101690008DF80F309DF90F301846FFF779FE009B4B
:1016A000019A0299FFF7C6FE00BF05B000BD00B564
:1016B00083B003468DF807309DF907301846FFF7D1
:1016C000F7FD00BF03B000BD00B583B003468DF841
:1016D00007309DF907301846FFF7D2FD034618463C
:1016E00003B000BD00B583B003468DF807309DF907
:1016F00007301846FFF7F4FD00BF03B000BD00B58A
:1017000083B003468DF807309DF907301846FFF780
:10171000FFFD0346184603B000BD82B00190019B57
:10172000042B06D1074B1B68064A43F004031360E1
:1017300005E0044B1B68034A23F00403136000BF59
:1017400002B0704710E000E008B500F002F800BFFA
:1017500008BD00BF704700BF00B583B00190019B7A
:101760001B685868019B9B6A591C019A9162C2B21E
:101770001A70019BDB8D9BB2013B9AB2019BDA850B
:10178000019BDB8D9BB2002B0AD1019B1B68DA68A1
:10179000019B1B6822F02002DA60019801F0C7F873
:1017A00000BF03B000BD00B585B00190019B1B6870
:1017B0001B680393039B03F02003002B03D00198C5
:1017C000FFF7CAFF19E0039B03F01003002B03D0BF
:1017D000019B1B685B6810E0039B03F00803002B70
:1017E00003D0019B1B685B6807E0039B03F00103C8
:1017F000002B02D0019B1B685B6800BF05B000BDD9
:1018000084B00190019B5B680393019B1B68264A8F
:10181000934204D0019B1B68244A934208D1244B75
:10182000D968019B1B68039AB1FBF2F29A6007E04A
:101830001F4B5968019B1B68039AB1FBF2F29A6037
:10184000019B1B6800229A61019B1B685B69019ADE
:10185000126823F47F6323F00F035361019B1B681D
:101860001B6923F4FE4323F07F03019AD168019A98
:1018700012680B431361019B1B68DB6823F43F4331
:1018800023F0FF03019A92681A43019B5B6913439B
:10189000019A126843F4005343F00C03D360002311
:1018A000184604B0704700BF00100140001401400A
:1018B000AC02002000B587B0039002911346ADF84A
:1018C00006300023ADF816300DE0BDF81630029A50
:1018D00013441B781946039800F050F8BDF81630F1
:1018E0000133ADF81630BDF81620BDF806309A4227
:1018F000EBD30023184607B000BD84B003900291DB
:101900001346ADF8063014E000BF039B1B681B684C
:1019100003F02003002BF8D0039B1B685968029B3F
:101920005A1C0292CAB21A70BDF80630013BADF8DB
:101930000630BDF80630002BE6D10023184604B06F
:10194000704784B0039002911346ADF80630039BB4
:101950001B68DA68039B1B6842F02002DA60039B75
:10196000029A9A62039BBDF806209A85039BBDF8F4
:101970000620DA850023184604B0704782B0019033
:101980000B468DF8033000BF019B1B681B6803F0FA
:101990008003002BF8D0019B1B689DF803205A6040
:1019A00000BF02B0704700B583B00190009107E01E
:1019B000009B5A1C00921B7819460198FFF7DEFF26
:1019C000009B1B78002BF3D100BF00BF03B000BD0C
:1019D0000EB42DE9F04398B0019020AB0B932BE1AE
:1019E0001F9B1B78252B40F01E811F9B01331F93EB
:1019F0001F9B1B78252B3BD0252BC0F20D81782B0C
:101A000000F30A81632BC0F20781633B152B00F2C0
:101A1000038101A252F823F07B1A0008A91A0008DA
:101A2000191C0008231B0008191C0008191C0008B9
:101A3000191C0008191C0008191C0008191C0008B2
:101A4000191C0008191C0008191C0008191C0008A2
:101A5000191C0008191C0008951A0008191C000818
:101A6000DF1A0008191C0008191C0008011B0008D7
:101A700025210198FFF782FFDBE00B9B1A1D0B92DB
:101A80001B688DF833309DF8333019460198FFF705
:101A900075FFCEE00B9B1A1D0B921B6816931699CF
:101AA0000198FFF780FFC4E00B9B1A1D0B921B6887
:101AB0001793179B002B06DA2D210198FFF75EFF85
:101AC000179B5B42179302AB0A2217991846FFF740
:101AD000AFF802AB19460198FFF765FFA9E00B9B31
:101AE0001A1D0B921B68179302AB0A22179918460E
:101AF000FFF79EF802AB19460198FFF754FF98E0F4
:101B00000B9B1A1D0B921B68179302AB102217999F
:101B10001846FFF78DF802AB19460198FFF743FF0F
:101B200087E00B9B073323F0070303F108020B92B6
:101B3000D3E90023CDE91423DDE914014FF00002BD
:101B40004FF00003CA0F0023CDE91223129B03F0CC
:101B500001031193DDE914239046C3F31309CDE982
:101B60001289DDE9120102F061F902460B46CDE966
:101B70000E234FF00002384BDDE90E0102F0B6FAF9
:101B800002460B46CDE90E234FF00002334BDDE950
:101B90000E0101F0CBFF02460B46CDE90E23DDE935
:101BA00014014FF000024FF000030A0D0023C2F3AE
:101BB0000A060027CDE91267DDE9122328495418E7
:101BC00043F1FF35CDE91245129B18469FED200BDE
:101BD000FFF786F951EC100BDDE90E2302F05CF9FA
:101BE00002460B461046194602F02EFC03460D93A2
:101BF000119B012B03D12D210198FFF7BFFE02ABF2
:101C000005219DED0D0A1846FFF71CF902AB194698
:101C10000198FFF7C8FE0CE01F9B1B78194601983E
:101C2000FFF7ACFE05E01F9B1B7819460198FFF7F4
:101C3000A5FE1F9B01331F931F9B1B78002B7FF476
:101C4000CFAE00BF00BF18B0BDE8F04303B070478F
:101C50000000000000000040000030430000F03FA2
:101C600001FCFFFF00B583B00346ADF806300B4B17
:101C70005A69BDF806301340002B0BD0074B5A6948
:101C8000BDF80630054913404B61BDF806301846D3
:101C900000F046FE00BF03B000BD00BF003C0140A5
:101CA00088B0019000910023059300230493002342
:101CB00006930023079359E10122079B02FA03F3DD
:101CC0000593009B1B68059A13400493049A059B97
:101CD0009A4240F04881009B5B68022B03D0009B36
:101CE0005B68122B23D1079BDA08019B083253F85B
:101CF00022300693079B03F007039B000F2202FA92
:101D000003F3DB43069A13400693009B1A69079B73
:101D100003F007039B0002FA03F3069A13430693AA
:101D2000079BDA08019B0832069943F82210019BB1
:101D30001B680693079B5B00032202FA03F3DB4355
:101D4000069A13400693009B5B6803F00302079B0F
:101D50005B0002FA03F3069A13430693019B069A6B
:101D60001A60009B5B68012B0BD0009B5B68022B09
:101D700007D0009B5B68112B03D0009B5B68122B84
:101D800030D1019B9B680693079B5B00032202FAFC
:101D900003F3DB43069A13400693009BDA68079B24
:101DA0005B0002FA03F3069A13430693019B069A1B
:101DB0009A60019B5B6806930122079B02FA03F37A
:101DC000DB43069A13400693009B5B681B0903F0F4
:101DD0000102079B02FA03F3069A13430693019B41
:101DE000069A5A60019BDB680693079B5B000322FF
:101DF00002FA03F3DB43069A13400693009B9A68AA
:101E0000079B5B0002FA03F3069A13430693019BB8
:101E1000069ADA60009B5B6803F08053002B00F0A9
:101E2000A28000230393554B5B6C544A43F48043D8
:101E30005364524B5B6C03F480430393039B504AFF
:101E4000079B9B08023352F823300693079B03F04D
:101E500003039B000F2202FA03F3DB43069A1340AD
:101E60000693019B474A934219D0019B464A9342ED
:101E700013D0019B454A93420DD0019B444A9342A3
:101E800007D0019B434A934201D1042308E0072372
:101E900006E0032304E0022302E0012300E0002324
:101EA000079A02F0030292009340069A13430693A6
:101EB0003349079B9B080233069A41F82320364B8F
:101EC0001B680693049BDB43069A13400693009B12
:101ED0005B6803F48033002B03D0069A049B134302
:101EE00006932D4A069B13602B4B5B680693049B5D
:101EF000DB43069A13400693009B5B6803F40033B0
:101F0000002B03D0069A049B13430693224A069B98
:101F10005360214B9B680693049BDB43069A134056
:101F20000693009B5B6803F48013002B03D0069A92
:101F3000049B13430693184A069B9360164BDB6879
:101F40000693049BDB43069A13400693009B5B6851
:101F500003F40013002B03D0069A049B134306934B
:101F60000D4A069BD360079B01330793079B0F2BFA
:101F70007FF6A2AE00BF00BF08B070470038024035
:101F80000038014000000240000402400008024006
:101F9000000C024000100240003C014082B0019061
:101FA0000B46ADF8023000BF184602B0704782B051
:101FB00001900B46ADF8023000BF184602B07047E2
:101FC00082B001900B46ADF802301346ADF80030F8
:101FD00000BF02B0704782B001900B46ADF80230EE
:101FE0001346ADF8003000BF02B0704700B583B0B3
:101FF0000190019B1B681A69019B1B6822F01F025C
:102000001A61019800F098FC00BF03B000BD82B0D7
:10201000019000910023184602B0704782B00190F1
:1020200000910023184602B0704782B00190019BD6
:102030001B681A69019B1B6822F01F021A61019B31
:102040001B681A68019B1B6802F47C421A60019BA2
:102050001B68019A52689A62019B1B68019AD268B8
:10206000DA620023184602B0704782B0019000BFC8
:1020700002B0704782B0019000BF02B0704782B0DA
:10208000019000BF02B0704782B0019000BF02B063
:10209000704782B00190019B1B681A69019B1B6805
:1020A00022F01F021A61019B1B684FF400425A6420
:1020B000019B1B6880221A60019B1B68019A526871
:1020C0009A62019B1B68019AD268DA620023184663
:1020D00002B0704784B00390029101920093029B7A
:1020E000042B02D8019B642B01D90023E8E0029B5A
:1020F000013B032B46D801A252F823F00D21000822
:102100002B2100084921000867210008039B1B6858
:10211000DB6A0133019A03FB02F2039B1B686A49E5
:10212000A1FB021252095A632DE0039B1B68DB6A74
:102130000133019A03FB02F2039B1B686249A1FB76
:10214000021252099A631EE0039B1B68DB6A01338B
:10215000019A03FB02F2039B1B685B49A1FB02127D
:102160005209DA630FE0039B1B68DB6A0133019AB3
:1021700003FB02F2039B1B685349A1FB02125209A5
:102180001A6400E000BF029B013B0293029B032BF9
:102190006ED801A252F823F0A9210008DB21000823
:1021A0000D2200083F220008039B1B689B69029ACE
:1021B000D20002F00802FF2101FA02F2D2431A40D3
:1021C000029BDB0003F00803682101FA03F31946C0
:1021D000039B1B680A439A614BE0039B1B689B6946
:1021E000029AD20002F00802FF2101FA02F2D24361
:1021F0001A40029BDB0003F00803682101FA03F395
:102200001946039B1B680A439A6132E0039B1B68D3
:10221000DB69029AD20002F00802FF2101FA02F201
:10222000D2431A40029BDB0003F00803682101FA45
:1022300003F31946039B1B680A43DA6119E0039B09
:102240001B68DB69029AD20002F00802FF2101FA42
:1022500002F2D2431A40029BDB0003F0080368211C
:1022600001FA03F31946039B1B680A43DA6100E095
:1022700000BF009B002B14D0039B1B681B6A029AB3
:1022800092000F2101FA02F2D2431A40029B9B00F6
:10229000012101FA03F31946039B1B680A431A62E2
:1022A0000DE0039B1B681A6A029B9B000F2101FA39
:1022B00003F3DB431946039B1B680A401A620023A1
:1022C000184604B0704700BF1F85EB5184B00390DF
:1022D00002910192029B042B02D8019B642B01D92D
:1022E00000234DE0029B013B032B47D801A252F88B
:1022F00023F000BF05230008232300084123000822
:102300005F230008039B1B68DB6A0133019A03FB10
:1023100002F2039B1B681C49A1FB021252095A637B
:102320002DE0039B1B68DB6A0133019A03FB02F279
:10233000039B1B681449A1FB021252099A631EE019
:10234000039B1B68DB6A0133019A03FB02F2039BC8
:102350001B680D49A1FB02125209DA630FE0039BCF
:102360001B68DB6A0133019A03FB02F2039B1B68C3
:102370000549A1FB021252091A6400E000BF0023C4
:10238000184604B0704700BF1F85EB5182B0019022
:10239000019B1B689B68224A1360214B1B6803F05A
:1023A0000203002B21D0019B1B6C002B1DD0019B35
:1023B0005B6C012B02D9019B1B68DB68019B9A6B4C
:1023C000019B5B6C581C0199486413441A78019B6B
:1023D0001B68DA60019B1B6C5A1E019B1A64114B2F
:1023E0001B6801330F4A136012E0019B1B68DB6816
:1023F000019B1B685A68019B1B6822F080025A608F
:10240000094B1B680133084A1360019B00221A65BF
:10241000064B1B680133054A136000BF02B07047CA
:10242000D4020020CC020020D0020020C8020020EC
:1024300086B00190002304931D4BDB680493019B3D
:102440001B6B049AB2FBF3F303930023059326E07E
:10245000059B0133012202FA03F31A46039B9342C0
:102460001AD8019B5A6B059BDB001A43019B1B6822
:1024700042F441721A60019B1B6804225A60019B5E
:102480001B681A68019B1B6842F040021A60049A9C
:10249000059B02FA03F307E0059B01330593059BB7
:1024A000072BD5D94FF0FF33184606B0704700BF51
:1024B000AC02002084B0039002911346ADF80630C0
:1024C000039B01221A65039B029A9A63BDF80630AA
:1024D000013B1A46039B1A64039B01225A64039B27
:1024E0001B685A68039B1B6842F080025A60039B7A
:1024F0009B6B1A78039B1B68DA6000BF039B1B6809
:102500009B6803F00303002BF8D0039B1B689B68B8
:1025100003F08003002BF1D1039B1B68DB680023D1
:10252000184604B0704782B001900B468DF8033016
:10253000019B1B689DF80320DA6000BF019B1B68AC
:102540009B6803F00303002BF8D0019B1B689B687A
:1025500003F08003002BF1D1019B1B68DB68002393
:10256000184602B0704700BF82B003468DF80730AE
:102570009DF8073003F01F0205499DF907305B09FC
:10258000012000FA02F241F8232000BF02B0704798
:1025900000E100E082B0034600918DF807309DF91C
:1025A0000730002B0CDA009BDAB20C499DF807309B
:1025B00003F00F03043B1201D2B20B441A7609E078
:1025C000009BDAB206499DF907301201D2B20B44E2
:1025D00083F8002300BF02B0704700BF00ED00E0A9
:1025E00000E100E000B585B0002303931D4B1B6B99
:1025F0001C4A43F0010313631A4B1B6B03F00103E6
:102600000393039B00230293164B1B6B154A43F065
:1026100002031363134B1B6B03F002030293029B31
:10262000002301930F4B1B6B0E4A43F0040313630B
:102630000C4B1B6B03F004030193019B00F014F897
:1026400000F016F800F016F800F028F800F068F82E
:1026500000F0DEF800F092F800F034F800BF05B0AA
:1026600000BD00BF0038024086B000BF06B0704712
:1026700000BF704782B000230193074B1B6C064AD2
:1026800043F001031364044B1B6C03F0010301933B
:10269000019B00BF02B070470038024082B00023A7
:1026A0000193074B1B6C064A43F008031364044B69
:1026B0001B6C03F008030193019B00BF02B070473D
:1026C0000038024000B587B000230093124B5B6CCA
:1026D000114A43F0100353640F4B5B6C03F010037B
:1026E0000093009B4FF4C0630193022302930023E5
:1026F0000393022304930723059301AB194607486C
:10270000FFF7CEFA06212520FFF744FF2520FFF72B
:102710002BFF00BF07B000BD0038024000000240A0
:1027200000B587B000230093124B1B6C114A43F491
:10273000003313640F4B1B6C03F400330093009BB6
:102740000C23019302230293002303930223049397
:102750000723059301AB19460748FFF7A1FA0721A4
:102760002620FFF717FF2620FFF7FEFE00BF07B069
:1027700000BD00BF003802400000024000B587B035
:102780004FF4A073019301230293002303930123C9
:10279000049301AB19461B48FFF782FA40230193CB
:1027A00001230293002303930123049301AB1946F1
:1027B0001548FFF775FA00230093144B5B6C134A1E
:1027C00043F480535364114B5B6C03F480530093C8
:1027D000009BA0230193022302930023039303236E
:1027E00004930523059301AB19460648FFF758FAF1
:1027F00004212320FFF7CEFE2320FFF7B5FE00BF04
:1028000007B000BD00000240000402400038024052
:1028100000B587B000230093164B1B6C154A43F498
:1028200000131364134B1B6C03F400130093009B01
:102830004FF4407301931223029300230393022366
:1028400004930423059301AB19460B48FFF728FABC
:1028500003211F20FFF79EFE1F20FFF785FE0221A8
:102860002020FFF797FE2020FFF77EFE00BF07B075
:1028700000BD00BF003802400004024008B5FEF76A
:10288000B9FBFEF761FF00BF08BD08B50248FFF7BE
:10289000ADFB00BF08BD00BF5005002008B50248D1
:1028A000FEF781FF00BF08BDD805002008B502482B
:1028B000FEF779FF00BF08BD6405002008B5024897
:1028C000FDF748FF00BF08BD9405002008B5024889
:1028D000FEF72EF800BF08BD9405002008B54FF4A0
:1028E0000050FFF7BFF900BF08BD08B51020FFF783
:1028F000B9F900BF08BD08B50120FFF7B3F900BF63
:1029000008BD08B50220FFF7ADF900BF08BD08B546
:102910000248FFF73BFD00BF08BD00BFE8040020F0
:1029200082B00346ADF8063000BF02B0704782B0F7
:10293000019000BF02B0704782B0019000BF02B0AA
:10294000704730B591B010222A492B48FEF7B2FFEC
:102950004FF49660FEF792FB032228492848FEF7C1
:10296000A9FF4FF49660FEF789FB264B01AC1D468C
:102970000FCD0FC42B68236000230F932FE00F9B14
:102980009B0040336B4453F83C4C0F9B9B004033FF
:102990006B4453F83C3C184601F0BAF803469BB22E
:1029A0001A4621461648FEF785FF4FF4FA70FEF7E7
:1029B00065FB0F9B9B0040336B4453F83C3C06A8DF
:1029C000114A202102F0A4FC0E900E9B9AB206AB95
:1029D00019460948FEF76EFF0F9B01330F930F9BBB
:1029E000042BCCDD122209490348FEF763FF00BF28
:1029F00011B030BDCC7E000864050020E07E0008E8
:102A0000D8050020407F0008E47E0008F07E000822
:102A100000B5B1B0FEF7ACFAFFF7E4FDA84BA94A48
:102A20001A60A74B4FF4E1325A60A54B00229A601E
:102A3000A34B0022DA60A24B00221A61A04B0C22A9
:102A40005A619F4B00229A619D4B0022DA619C489B
:102A5000FEF7D6FE9C4B2D9309222D999848FEF740
:102A600029FF6420FEF70AFB984B994A1A60974B9E
:102A70004FF416525A60954B00229A60934B0022F5
:102A8000DA60924B00221A619048FEF7B9FE914B32
:102A90002C9309222C998D48FEF70CFF8E4B8F4A00
:102AA0001A608D4B8E4A5A608B4B00229A608A4B7B
:102AB0000022DA60884B00221A61874B00225A619B
:102AC000854B00229A61844B0022DA61824B0022FE
:102AD0001A628148FDF777FF75238DF8BF3028E033
:102AE000D0238DF817309DF8BF3099B20DF1170241
:102AF0004FF47A73009301237748FDF7BFFF034635
:102B0000002B0ED19DF8BF301AA8764A202102F082
:102B1000FFFB2290229B9AB21AAB19466848FEF737
:102B2000C9FE0A20FEF7AAFA9DF8BF3001338DF8DE
:102B3000BF309DF8BF30772BD2D96B4B2B930D2232
:102B40002B995F48FEF7B6FE6420FEF797FA18ABA4
:102B5000184600F07EF9654B5F4A9A62634B772214
:102B60009A8418AB1946614800F0F3FA034683F0E3
:102B70000103DBB2002B04D04FF4FA70FEF77EFAAB
:102B8000FAE718AB1946594800F0E3FA034683F018
:102B90000103DBB2002B0BD0554B23930D2223995D
:102BA0004748FEF787FE4FF4FA70FEF767FAFAE738
:102BB000504B2A930B222A994148FEF77BFEFFF7E0
:102BC000C0FE4FF0000317934FF00003169317AAAF
:102BD00016A90023454800F003FF03468DF8A730EF
:102BE0009DF8A730002B5ED09DED177ADFED426A8D
:102BF000C7EE267AFDEEE77A17EE903A2793DDEDE1
:102C0000177AFDEEE77A17EE903A3C4A82FB031200
:102C10005111DA178A1A642101FB02F29B1A2693DA
:102C2000DDED167AFDEEE77A17EE903A2593DDEDAD
:102C3000167A9FED317A67EE877AFDEEE77A17EE26
:102C4000903A2E4A82FB03125111DA178A1A642134
:102C500001FB02F29B1A2E932E9B002B02DA2E9B75
:102C60005B422E93FEF7D4F9024606A82E9B0393EF
:102C7000259B0293269B0193279B00931346204A92
:102C8000402102F045FB2490249B9AB206AB1946E2
:102C90000B48FEF70FFE249B9AB206AB19460B4871
:102CA000FEF708FE06E0174B28930A2228990448ED
:102CB000FEF700FE4FF4FA70FEF7E0F987E700BF79
:102CC0006405002000440040547F0008D80500201F
:102CD00000100140607F000894050020005400406F
:102CE000A08601006C7F00087C7F00080806002099
:102CF0008C7F00089C7F00080000C8421F85EB51B4
:102D0000A87F0008C47F000800B591B00590084670
:102D100011461A460346ADF812300B46ADF8103096
:102D20001346ADF80E30BDF81030DBB28DF8183018
:102D3000BDF812305B0899B2BDF84C3006A8149A61
:102D400001920093012302460598FDF729FF0E909A
:102D50000023ADF83E300FE0BDF83E20BDF83E3018
:102D600012990B4440326A4412F8282C1A70BDF8AC
:102D70003E300133ADF83E30BDF83E20BDF84C305A
:102D80009A42E9D30E9B184611B000BD2DE9F043DD
:102D90008BB002AFF860084611461A4603467B81A5
:102DA0000B463B811346FB806B461E46B7F844300A
:102DB000591C4B1EBB610A460023904699464FF0B2
:102DC00000024FF000034FEAC90343EA58734FEA89
:102DD000C8020A46002314461D464FF000024FF079
:102DE0000003EB0043EA5473E2000B460733DB08B1
:102DF000DB00ADEB030D02AB7B613B89DAB27B6993
:102E00001A700023FB830AE0FB8B3A6C1A44FB8B9D
:102E1000013311787A69D154FB8B0133FB83FA8B30
:102E2000B7F844309A42EFD37B895B0899B2B7F880
:102E3000443001339AB2BB6C009313467A69F86848
:102E4000FDF71CFE0346B54618462437BD46BDE8CF
:102E5000F08382B00190019B03221A70019B002233
:102E60005A70019B03229A70019B0322DA70019B26
:102E700003221A71019B03225A7100BF02B07047EE
:102E800000B58BB007900B4605928DF81B30079B61
:102E90009B8C5B00ADF82630079B986A9DF81B3031
:102EA0009AB2BDF8261041F28833029302230193AF
:102EB00009AB00930123FFF727FF0346002B0ED138
:102EC0009DF825301BB21B021AB29DF824301BB2AC
:102ED00013431BB29AB2059B1A80012300E0002322
:102EE00018460BB000BD10B58AB0079005921A467F
:102EF0000B468DF81B3013468DF81A30079B9B8CC0
:102F00005B00ADF82630079B986A9DF81B309AB29B
:102F10009DF81A309BB2BDF8261041F28834029415
:102F20000193059B00930123FFF7EEFE0346002B60
:102F300001D1002300E0012318460AB010BD00B5FE
:102F400083B00190019B1A4688210198FFF798FFF2
:102F50000346002B6FD0019B02331A468A21019849
:102F6000FFF78EFF0346002B65D0019B04331A4602
:102F70008C210198FFF784FF0346002B5BD0019B57
:102F800006331A468E210198FFF77AFF0346002B7D
:102F900051D0019B08331A4690210198FFF770FF2A
:102FA0000346002B47D0019B0A331A469221019811
:102FB000FFF766FF0346002B3DD0019B0C331A46FA
:102FC00094210198FFF75CFF0346002B33D0019B4F
:102FD0000E331A4696210198FFF752FF0346002B45
:102FE00029D0019B10331A4698210198FFF748FF1A
:102FF0000346002B1FD0019B12331A469A210198D9
:10300000FFF73EFF0346002B15D0019B14331A46F1
:103010009C210198FFF734FF0346002B0BD0019B46
:1030200016331A469E210198FFF72AFF0346002B0C
:1030300001D0012300E00023184603B000BD00B515
:1030400085B00190019B03F118020123A121019891
:10305000FFF749FF0346002B4ED1019B1A331A4656
:10306000E1210198FFF70CFF0346002B44D0019BA0
:1030700003F11C020123E3210198FFF734FF03460B
:10308000002B39D10DF10E031A46E4210198FFF708
:10309000F7FE0346002B2FD003AB1A46E52101981B
:1030A000FFF7EEFE0346002B26D0019B03F1220220
:1030B0000123E7210198FFF716FF0346002B1BD1E0
:1030C000BDF80E301BB21B011BB203F47F631AB2B2
:1030D000BDF80E301B121BB203F00F031BB21343DB
:1030E0001AB2019BDA83BDF80C301B099BB21AB2ED
:1030F000019B1A84012300E00023184605B000BD9F
:1031000000B589B005900B468DF8133013468DF845
:103110001230059B9B8C5B00ADF81E30059B986AB6
:103120009DF813309AB2BDF81E1042F2107302934C
:10313000012301930DF1120300930123FFF726FEF3
:103140000346002B01D1002300E00123184609B0FB
:1031500000BD00B585B001900091019B9B8C762B42
:1031600005D0019B9B8C772B01D00023A3E0019B12
:1031700003F132020123D0210198FFF7B4FE034688
:10318000002B01D0002396E0019B93F83230582B9E
:1031900006D0019B93F83230602B01D000238AE0E7
:1031A000B622E0210198FFF7ABFF0346002B01D0C8
:1031B000002380E003AA0123F3210198FFF793FE87
:1031C0000346002BF6D19DF80C3003F00103002BD1
:1031D000F0D10198FFF7B3FE034683F00103DBB2A1
:1031E000002B00D101E0002365E0019B93F8323011
:1031F000602B0AD10198FFF722FF034683F00103F9
:10320000DBB2002B01D0002355E0009B5B795BB261
:103210005B015AB2009B5B785BB29B005BB21343CD
:103220005BB28DF80F309DF80F301A46F5210198EA
:10323000FFF766FF0346002B01D000233BE0009B15
:103240001B78012B02D1009B00221A70009BDB78B7
:103250005BB25B015AB2009B9B785BB29B005BB296
:1032600013435AB2009B1B785BB213435BB28DF8D9
:103270000E30019B93F83230602B0FD1009B1B79ED
:103280008DF80D309DF80D301A46F2210198FFF7A8
:1032900037FF0346002B01D000230CE09DF80E30D1
:1032A0001A46F4210198FFF72BFF0346002B01D0AB
:1032B000002300E00123184605B000BD00B585B02D
:1032C00001900DF10F020123F4210198FFF70BFE8D
:1032D0000346002B01D000231AE09DF80F3023F0A5
:1032E0000303DBB28DF80F309DF80F3043F001037C
:1032F000DBB28DF80F309DF80F301A46F42101989B
:10330000FFF7FEFE0346002B01D0002300E001235F
:10331000184605B000BD00B585B001900DF10F0253
:103320000123F3210198FFF7DEFD0346002B01D0B6
:10333000002308E09DF80F3003F00803002B01D0B4
:10334000012300E00023184605B000BD86B00390BD
:1033500002910192029BDA10039B1B885B00D31A37
:10336000039AB2F9022002FB03F3DB120593029BDE
:103370001B11039A12889B1A029A12110399098849
:10338000521A02FB03F31B13039AB2F9042002FB47
:1033900003F39B130493059A049B1A44019B1A6040
:1033A000019B1A6813469B00134480331B12184676
:1033B00006B070472DE9F04FCBB043904291419257
:1033C000419BDA171C461546B4F5FA3845F1FF392A
:1033D000CDE94889499A489B03FB02F1499A489BE9
:1033E00002FB03F3CA18489BA3FB0367D3191F46CC
:1033F000439BB3F910301BB2DA1710931192DDE939
:103400001001034603FB07F20B4606FB03F31344CC
:103410000246A6FB02AB5B449B46CDE946ABCDE939
:1034200046AB439BB3F90E301BB2DA1712931392DB
:10343000489BDDE912452A4602FB03F2499B2146DF
:1034400001FB03F31A44489B2146A3FB0131019180
:103450000093019BD31801934FF000004FF000013F
:10346000DDE900452B465904234641EAD331234682
:103470005804DDE9462314182E944B412F93DDE9BF
:103480002E34CDE94634439BB3F90C301BB2DA1726
:10349000149315924FF000004FF00001149BD900D7
:1034A0000020DDE94623141830944B413193DDE9C7
:1034B0003034CDE94634499A489B03FB02F1499ADE
:1034C000489B02FB03F3CA18489BA3FB03310391FB
:1034D0000293039BD3180393439BB3F90A301BB2A7
:1034E000DA1716931792DDE902452B46DDE91667D8
:1034F000324602FB03F23B46214601FB03F3134431
:1035000022463146A2FB012105910492059A1344FB
:1035100005934FF000004FF00001DDE9044523461C
:10352000180A2B4640EA03602B461912439BB3F955
:1035300008301BB2DA1718931992489BDDE9185628
:10354000324602FB03F2499B2C4604FB03F31A4468
:10355000489B2C46A3FB043407940693079BD3187F
:1035600007934FF000024FF00003DDE906563446A2
:1035700023032C4643EA14532C4622038418329426
:1035800041EB03033393DDE93234CDE94834DDE91F
:10359000482303F500411B911A92439BDB889BB2A1
:1035A00000221C931D92DDE91A452B46DDE91C67BC
:1035B000324602FB03F23B46214601FB03F3134470
:1035C00022463146A2FB012109910892099A13442F
:1035D00009934FF000024FF00003DDE9084529464A
:1035E0004A102946CB17CDE94823DDE94823134388
:1035F00001D100232DE1429BC3F58013DA173493E8
:103600003592DDE93434CDE94434449B5B101F939B
:10361000449BDB071E93DDE94623DDE91E45214679
:10362000891A2091294661EB03032193DDE92045A6
:1036300022462B46911836915B413793DDE93623BC
:1036400021465118389129464B4139934FF00002D9
:103650004FF00003DDE9386739468B01314643EA14
:10366000916331468A01314689183A91394643EBD4
:1036700001013B914FF000024FF00003DDE93A6792
:1036800039468B00314643EA917331468A00104631
:103690001946034622469B183C930B462A4642EBAA
:1036A00003033D934FF000024FF00003DDE93C6758
:1036B00039468B00314643EA917331468A00104601
:1036C0001946034622469B1822932B460A4642EB94
:1036D00003032393DDE94823DDE9220100F004FF21
:1036E00002460B46CDE94423439BB3F916301BB287
:1036F000DA1724932592DDE944234FF000004FF0C0
:103700000001500B40EAC3405913DDE924452B4624
:1037100000FB03F2234603FB01F313442246A2FB02
:1037200000210B910A920B9A13440B93DDE9442379
:103730004FF000004FF00001500B40EAC340591316
:10374000DDE90A452B4600FB03F2234603FB01F3A8
:1037500013442246A2FB00210D910C920D9A1344B2
:103760000D934FF000024FF00003DDE90C452146B8
:103770004A0E294642EAC11229464B16CDE9482392
:10378000439BB3F914301BB2DA1726932792449B5C
:10379000DDE926452A4602FB03F2459B214601FB53
:1037A00003F31344449A2146A2FB01210F910E9288
:1037B0000F9A13440F934FF000024FF00003DDE91E
:1037C0000E452146CA0C294642EA41322946CB140D
:1037D000CDE94623DDE94401DDE948238418289436
:1037E00041EB03032993DDE94623DDE92845214622
:1037F00089182A91294643EB01012B914FF00000D3
:103800004FF00001DDE92A452346180A2B4640EA1D
:1038100003602B461912439BB3F912301BB2DA171F
:103820002C932D924FF000024FF00003DDE92C564F
:10383000344623012C4643EA14732C462201841893
:103840003E9441EB03033F93DDE93E34CDE944343C
:10385000449B18464BB0BDE8F08F86B003900291B0
:103860000192019BA3F596330593029B9A03039B58
:10387000B3F91E301B05D21A039BB3F92030194649
:10388000059B01FB03F3D31A03F58043DB13039A73
:1038900092F922201146059A01FB02F29212039935
:1038A000097F0846059900FB01F1C91201F50041A5
:1038B00001FB02F2921202F500120399B1F91A10FB
:1038C00001FB02F202F50052921302FB03F305938F
:1038D000059BDB13059AD21302FB03F3DB11039A5A
:1038E000127E02FB03F31B11059AD31A0593059B65
:1038F00023EAE3730593059BB3F1C85FA8BF4FF0BC
:10390000C8530593059B1B13184606B0704700B5B6
:103910008DB00390029101920093039B93F8323093
:10392000602B07D0009B002B02D0009B00221A6066
:1039300000230093009B002B01D0082300E0062306
:103940000B930B9BDBB206AAF7210398FFF7CBFA88
:103950000346002B01D000233FE09DF818301A03E6
:103960009DF819301B0113439DF81A201209D2B299
:1039700013430A939DF81B301A039DF81C301B015A
:1039800013439DF81D201209D2B21343099305ABCE
:103990001A4609990398FFF7D9FC0246029B1A6060
:1039A000059B1A460A990398FFF704FD0246019BFE
:1039B0001A60009B002B0FD09DF81E301B029DF853
:1039C0001F2013430893059B1A4608990398FFF795
:1039D00044FF0246009B1A60012318460DB000BD4B
:1039E00000B589B00390029101920093009B002BD7
:1039F00001D005AB00E0002306AA07A90398FFF752
:103A000086FF0346002B28D0079B07EE903AB8EEBE
:103A1000E77ADFED146AC7EE267A029BC3ED007ADF
:103A2000069B07EE903AB8EE677ADFED0F6AC7EEB5
:103A3000267A019BC3ED007A009B002B0BD0059BDF
:103A400007EE903AB8EE677ADFED086AC7EE267A9D
:103A5000009BC3ED007A012300E00023184609B063
:103A600000BD00BF0000C842000080430000804449
:103A700001F0FF01102A2BDB10F0070F08D010F81F
:103A8000013B013A8B422DD010F0070F42B3F6D123
:103A9000F0B441EA012141EA014122F007047FF03C
:103AA00000070023F0E80256083C85EA010586EA93
:103AB000010685FA47F5A3FA87F586FA47F6A5FACF
:103AC00087F68EB9EED1F0BC01F0FF0102F00702DB
:103AD00032B110F8013B013A83EA010313B1F8D186
:103AE0000020704701387047002D06BF3546033867
:103AF000073815F0010F07D1013015F4807F02BFA0
:103B0000013015F4C03F0130F0BC0138704700BFF0
:103B1000034613F8012B002AFBD1181A013870470D
:103B200081F0004102E000BF83F0004330B54FEA6E
:103B300041044FEA430594EA050F08BF90EA020FDB
:103B40001FBF54EA000C55EA020C7FEA645C7FEA6E
:103B5000655C00F0E2804FEA5454D4EB5555B8BF91
:103B60006D420CDD2C4480EA020281EA030382EA02
:103B7000000083EA010180EA020281EA0303362D94
:103B800088BF30BD11F0004F4FEA01314FF4801C67
:103B90004CEA113102D0404261EB410113F0004F79
:103BA0004FEA03334CEA133302D0524263EB430330
:103BB00094EA050F00F0A780A4F10104D5F1200ECE
:103BC0000DDB02FA0EFC22FA05F2801841F1000129
:103BD00003FA0EF2801843FA05F359410EE0A5F1FD
:103BE00020050EF1200E012A03FA0EFC28BF4CF02E
:103BF000020C43FA05F3C01851EBE37101F00045E4
:103C000007D54FF0000EDCF1000C7EEB00006EEBF0
:103C10000101B1F5801F1BD3B1F5001F0CD349087A
:103C20005FEA30004FEA3C0C04F101044FEA4452D1
:103C300012F5800F80F09A80BCF1004F08BF5FEA58
:103C4000500C50F1000041EB045141EA050130BD38
:103C50005FEA4C0C404141EB0101013C28BFB1F54A
:103C6000801FE9D291F0000F04BF01460020B1FA95
:103C700081F308BF2033A3F10B03B3F120020CDA68
:103C80000C3208DD02F1140CC2F10C0201FA0CF046
:103C900021FA02F10CE002F11402D8BFC2F1200CAB
:103CA00001FA02F120FA0CFCDCBF41EA0C01904061
:103CB000E41AA2BF01EB0451294330BD6FEA0404AA
:103CC0001F3C1CDA0C340EDC04F11404C4F1200295
:103CD00020FA04F001FA02F340EA030021FA04F3A7
:103CE00045EA030130BDC4F10C04C4F1200220FAFE
:103CF00002F001FA04F340EA0300294630BD21FA3C
:103D000004F0294630BD94F0000F83F4801306BF01
:103D100081F480110134013D4EE77FEA645C18BFF5
:103D20007FEA655C29D094EA050F08BF90EA020F8C
:103D300005D054EA000C04BF1946104630BD91EA84
:103D4000030F1EBF0021002030BD5FEA545C05D187
:103D50004000494128BF41F0004130BD14F58004C6
:103D60003CBF01F5801130BD01F0004545F0FE413A
:103D700041F470014FF0000030BD7FEA645C1ABF6F
:103D8000194610467FEA655C1CBF0B46024650EAA6
:103D9000013406BF52EA033591EA030F41F40021D2
:103DA00030BD00BF90F0000F04BF0021704730B558
:103DB0004FF4806404F132044FF000054FF000012D
:103DC00050E700BF90F0000F04BF0021704730B5EE
:103DD0004FF4806404F1320410F0004548BF4042C3
:103DE0004FF000013EE700BF42004FEAE2014FEA18
:103DF00031014FEA02701FBF12F07F4393F07F4FF3
:103E000081F06051704732F07F4208BF704793F0F5
:103E10007F4F04BF41F40021704730B54FF4607408
:103E200001F0004521F000411CE700BF50EA01020B
:103E300008BF704730B54FF000050AE050EA0102B4
:103E400008BF704730B511F0004502D5404261EB24
:103E500041014FF4806404F132045FEA915C3FF465
:103E6000D8AE4FF003025FEADC0C18BF03325FEA02
:103E7000DC0C18BF033202EBDC02C2F1200300FAB3
:103E800003FC20FA02F001FA03FE40EA0E0021FAD8
:103E900002F11444BDE600BF70B54FF0FF0C4CF4C6
:103EA000E06C1CEA11541DBF1CEA135594EA0C0F78
:103EB00095EA0C0F00F0DEF82C4481EA030621EAB3
:103EC0004C5123EA4C5350EA013518BF52EA0335EE
:103ED00041F4801143F4801338D0A0FB02CE4FF0A0
:103EE0000005E1FB02E506F00042E0FB03E54FF0D0
:103EF0000006E1FB03569CF0000F18BF4EF0010EC8
:103F0000A4F1FF04B6F5007F64F5407404D25FEAC3
:103F10004E0E6D4146EB060642EAC62141EA555176
:103F20004FEAC52040EA5E504FEACE2EB4F1FD0CB8
:103F300088BFBCF5E06F1ED8BEF1004F08BF5FEA36
:103F4000500E50F1000041EB045170BD06F00046E8
:103F500046EA010140EA020081EA0301B4EB5C0495
:103F6000C2BFD4EB0C0541EA045170BD41F480118D
:103F70004FF0000E013C00F3AB8014F1360FDEBFB2
:103F8000002001F0004170BDC4F10004203C35DA8E
:103F90000C341BDC04F11404C4F1200500FA05F311
:103FA00020FA04F001FA05F240EA020001F00042B2
:103FB00021F0004110EBD37021FA04F642EB060128
:103FC0005EEA430E08BF20EAD37070BDC4F10C0452
:103FD000C4F1200500FA04F320FA05F001FA04F216
:103FE00040EA020001F0004110EBD37041F1000102
:103FF0005EEA430E08BF20EAD37070BDC4F120050D
:1040000000FA05F24EEA020E20FA04F301FA05F274
:1040100043EA020321FA04F001F0004121FA04F21C
:1040200020EA020000EBD3705EEA430E08BF20EAEC
:10403000D37070BD94F0000F0FD101F00046400026
:1040400041EB010111F4801F08BF013CF7D041EAA8
:10405000060195F0000F18BF704703F000465200AC
:1040600043EB030313F4801F08BF013DF7D043EA7D
:104070000603704794EA0C0F0CEA135518BF95EA33
:104080000C0F0CD050EA410618BF52EA4306D1D1BA
:1040900081EA030101F000414FF0000070BD50EAD9
:1040A000410606BF1046194652EA430619D094EA63
:1040B0000C0F02D150EA013613D195EA0C0F05D14D
:1040C00052EA03361CBF104619460AD181EA0301A1
:1040D00001F0004141F0FE4141F470014FF0000059
:1040E00070BD41F0FE4141F4780170BD70B54FF0F4
:1040F000FF0C4CF4E06C1CEA11541DBF1CEA135574
:1041000094EA0C0F95EA0C0F00F0A7F8A4EB050455
:1041100081EA030E52EA03354FEA013100F088804C
:104120004FEA03334FF0805545EA131343EA126315
:104130004FEA022245EA111545EA10654FEA0026CA
:104140000EF000419D4208BF964244F1FD0404F583
:10415000407402D25B084FEA3202B61A65EB0305DF
:104160005B084FEA32024FF480104FF4002CB6EB9C
:10417000020E75EB030E22BFB61A754640EA0C001C
:104180005B084FEA3202B6EB020E75EB030E22BF5C
:10419000B61A754640EA5C005B084FEA3202B6EB9D
:1041A000020E75EB030E22BFB61A754640EA9C005C
:1041B0005B084FEA3202B6EB020E75EB030E22BF2C
:1041C000B61A754640EADC0055EA060E18D04FEAEA
:1041D000051545EA16754FEA06164FEAC30343EA8A
:1041E00052734FEAC2025FEA1C1CC0D111F4801F57
:1041F0000BD141EA00014FF000004FF0004CB6E750
:1042000011F4801F04BF01430020B4F1FD0C88BFEE
:10421000BCF5E06F3FF6AFAEB5EB030C04BFB6EBF9
:10422000020C5FEA500C50F1000041EB045170BDEC
:104230000EF0004E4EEA113114EB5C04C2BFD4EB19
:104240000C0541EA045170BD41F480114FF0000E9D
:10425000013C90E645EA060E8DE60CEA135594EA19
:104260000C0F08BF95EA0C0F3FF43BAF94EA0C0F1C
:104270000AD150EA01347FF434AF95EA0C0F7FF491
:1042800025AF104619462CE795EA0C0F06D152EAE5
:1042900003353FF4FDAE1046194622E750EA4106C9
:1042A00018BF52EA43067FF4C5AE50EA41047FF4DA
:1042B0000DAF52EA43057FF4EBAE12E74FF0FF3C3F
:1042C00006E000BF4FF0010C02E000BF4FF0010C10
:1042D0004DF804CD4FEA410C7FEA6C5C4FEA430C89
:1042E00018BF7FEA6C5C1BD001B050EA410C0CBFD8
:1042F00052EA430C91EA030F02BF90EA020F00203A
:10430000704710F1000F91EA030F58BF994208BFA0
:1043100090422CBFD8176FEAE37040F0010070475D
:104320004FEA410C7FEA6C5C02D150EA013C07D1B4
:104330004FEA430C7FEA6C5CD6D152EA033CD3D0FF
:104340005DF8040B704700BF8446104662468C46F9
:104350001946634600E000BF01B5FFF7B7FF00282C
:1043600048BF10F1000F01BD4DF808EDFFF7F4FF55
:104370000CBF012000205DF808FB00BF4DF808EDE0
:10438000FFF7EAFF34BF012000205DF808FB00BF03
:104390004DF808EDFFF7E0FF94BF012000205DF825
:1043A00008FB00BF4DF808EDFFF7CEFF94BF0120DA
:1043B00000205DF808FB00BF4DF808EDFFF7C4FFD3
:1043C00034BF012000205DF808FB00BF4FEA410C1C
:1043D0007FEA6C5C02D150EA013C0AD14FEA430CFF
:1043E0007FEA6C5C02D152EA033C02D14FF000003C
:1043F00070474FF0010070474FEA410212F500127A
:1044000015D211D56FF47873B3EB625212D94FEA1B
:10441000C12343F0004343EA505311F0004F23FA05
:1044200002F018BF404270474FF00000704750EA5A
:10443000013005D111F0004008BF6FF00040704717
:104440004FF00000704700BF4FEA4102B2F1E04375
:1044500024BFB3F5001CDCF1FE5C0DD901F0004C6B
:104460004FEAC0024CEA5070B2F1004F40EB8300BB
:1044700008BF20F00100704711F0804F21D113F1E7
:104480003872BCBF01F00040704741F480114FEA20
:104490005252C2F11802C2F1200C10FA0CF320FAA9
:1044A00002F018BF40F001004FEAC1234FEAD323C6
:1044B00003FA0CFC40EA0C0023FA02F34FEA430330
:1044C000CCE77FEA625307D150EA01331EBF4FF0B9
:1044D000FE4040F44000704701F0004040F0FE40D4
:1044E00040F40000704700BF7BB972B90029BEBF1D
:1044F00000204FF0004106E008BF00281CBF6FF00D
:1045000000414FF0FF3000F0BBB9ADF1080C6DE990
:1045100004CE002909DB002B1ADB00F035F8DDF8AA
:1045200004E0DDE9022304B07047404261EB410141
:10453000002B1BDB00F028F8DDF804E0DDE90223A6
:1045400004B0404261EB4101524263EB43037047C8
:10455000524263EB430300F017F8DDF804E0DDE9B5
:10456000022304B0404261EB41017047524263EBC9
:10457000430300F009F8DDF804E0DDE9022304B0AC
:10458000524263EB430370472DE9F047089D0F4605
:1045900004468C46002B48D18A42164661D9B2FAAD
:1045A00082F34BB1C3F1200201FA03FC20FA02F2BC
:1045B0009E4042EA0C0C9C404FEA164EB7B2BCFB40
:1045C000FEF1220C0EFB11CC42EA0C4201FB07F07B
:1045D000904209D9B21801F1FF3C80F0EE80904280
:1045E00040F2EB8002393244121AA4B2B2FBFEF060
:1045F0000EFB102244EA024400FB07F7A74209D948
:10460000341900F1FF3280F0DA80A74240F2D780FF
:104610003444023840EA0140E41B00211DB1DC4073
:104620000023C5E90043BDE8F0878B4206D90DB1F0
:10463000C5E9000100210846BDE8F087B3FA83F11F
:10464000002948D1BB4202D3824200F20781841A7A
:1046500067EB030201209446002DE4D0C5E9004C2D
:10466000E1E7002A00F09280B2FA82F3002B40F0DA
:10467000A8808A1A4FEA164E1FFA86FC0121200CE8
:10468000B2FBFEF70EFB172240EA02420CFB07F0DA
:10469000904207D9B21807F1FF3802D2904200F2D7
:1046A000E2804746121AA4B2B2FBFEF00EFB1022C3
:1046B00044EA02440CFB00FCA44507D9341900F17C
:1046C000FF3202D2A44500F2CB801046A4EB0C04CA
:1046D00040EA0740A2E7C1F120068B4022FA06FC1F
:1046E0004CEA030C07FA01F420FA06F3F7404FEA0C
:1046F0001C49234300FA01F81FFA8CFEB7FBF9F0BE
:104700001C0C09FB107744EA074400FB0EF7A74294
:1047100002FA01F20AD91CEB040400F1FF3A80F01E
:104720009B80A74240F2988002386444E41B9FB209
:10473000B4FBF9F309FB134447EA044403FB0EFE00
:10474000A64509D91CEB040403F1FF3780F08280F1
:10475000A6457FD9023B644443EA0040A4EB0E0423
:10476000A0FB02E7BC427346B94663D360D05DB19B
:10477000B8EB030264EB090404FA06F622FA01F32B
:104780001E43CC40C5E9006400214CE7620848089C
:1047900042EAC1710B0C43EA00438AB242EA034287
:1047A000B3FBF6F1E407B4463746B6461F23B0FB29
:1047B000F6F0D21B41EA004161E7614614E710467A
:1047C00028E7C3F1200120FA01F29E4027FA01F107
:1047D0009F403A434FEA164E1FFA86FCB1FBFEF7A4
:1047E0000EFB1710110C41EA004107FB0CF888453D
:1047F00004FA03F43AD9711807F1FF3001D2884561
:104800001FD8A1EB0801B1FBFEF808FB0CF70EFB6B
:10481000181192B242EA0142BA422FD2B21808F1FC
:10482000FF31C6D2BA42C4D2A8F102013244C0E775
:10483000F0459CD2BEEB020367EB0C070138B9468A
:1048400095E7A6EB08084144B81EB1FBFEF808FB4B
:104850000CF7DCE73B467FE7504667E70846FBE698
:104860003444023832E7023F32441BE7A1EB08012F
:104870003846B1FBFEF808FB0CF7C8E7414698E75D
:10488000704700BF0D480E490E4A914204D050F8BF
:10489000044B41F8044BF8E70B480C494FF0000279
:1048A000884202D040F8042BFAE7FBF7A9FC00F09D
:1048B000FBFDFEF7ADF8FFF7FEBF0000A483000884
:1048C0000000002090020020900200208C070020B1
:1048D000FEE72DE9FF4757EC106B002F0C461946F9
:1048E0003B46BBBF07F100431F4600232D230B703F
:1048F0000D9BDDF830A0914623F02008BCBF324666
:104900001646B8F1460F05D0B8F1450F00D1013475
:10491000022100E0032103AB019302AB009347ECBB
:10492000106B5346224600F06FFEB8F1470F054664
:1049300019D119F0010F0ED000EB04090022002359
:1049400030463946FFF710FD08B1CDF80C90302203
:10495000039B4B451ED3039B0E9A5B1B284613609B
:1049600004B0BDE8F087B8F1460F00EB0409E5D1CB
:104970000378302B0AD10022002330463946FFF756
:10498000F3FC18B9C4F10104CAF80040DAF80030A9
:104990009944D3E7591C03911A70D9E7F7B5002958
:1049A000BABF49422D232B2309290270437029DD08
:1049B0000DF1070425460A272246B1FBF7F607FB4F
:1049C0001613303302F8013C0B46632B04F1FF341D
:1049D0003146F1DC3031931E04F8011C411C1C46A9
:1049E000AB420AD30DF109039B1AA54238BF00233D
:1049F000821C1344181A03B0F0BD13F8016B01F8C0
:104A0000016FEDE7302330318370C170031DF1E792
:104A10002DE9F04F8DB00C46DDF8588016461F4644
:104A2000054600F0F7FC036806931846FFF770F898
:104A300000230A93D8F8003094F818A0D4F800B0F6
:104A40000790073323F00703B3EC027B8DED047B63
:104A5000C8F80030DDE9048323F0004984ED127BBF
:104A60009C4B4FF0FF3240464946FFF7AFFC70BB0E
:104A7000984B4FF0FF3240464946FFF789FC30BB68
:104A8000DDE9040100220023FFF778FC10B12D239B
:104A900084F84330904A914BBAF1470F8CBF90464F
:104AA0009846032323612BF0040323604FF0000991
:104AB000009733460BAA2146284600F0D1F9013071
:104AC00040F08C804FF0FF300DB0BDE8F08FDDE995
:104AD000042310461946FFF779FC40B1059B804A34
:104AE000002BBCBF2D2384F843307E4BD4E7636892
:104AF0005A1C0AF0DF093BD1062363604BF4806245
:104B00000023226003930AABCDE901A309AB009314
:104B100061689DED040B0DF123032846FFF7D9FED4
:104B2000B9F1470F0999804629D1C81C02DB636897
:104B30008B4241DAAAF1020A5FFA8AFA0139524637
:104B400004F150000991FFF729FF0A9A1318012A6E
:104B50008146236102DC2268D20701D5013323613B
:104B60009DF82330002BA3D02D2384F843309FE7FA
:104B7000B9F1470FC2D1002BC0D10123BDE7BAF173
:104B8000650FDBD9BAF1660F18D1002963680BDD18
:104B9000216113B92268D00702D501330B44236188
:104BA000A1654FF00009DBE713B92268D20701D5F0
:104BB0000233F4E70123F2E74FF0670A0A9B8B42C6
:104BC00005DC23682161D807EAD54B1CE7E70029FB
:104BD000D4BFC1F1020201221344E0E723685A0561
:104BE00007D42369424631462846B84701302BD1C5
:104BF00068E7BAF1650F40F2DD80D4E912010022C6
:104C00000023FFF7B1FB002833D0374A0123314698
:104C10002846B84701303FF455AFDDE90938434530
:104C200002DB2368D8070FD5DDE906233146284685
:104C3000B84701303FF446AF4FF0000908F1FF38A4
:104C400004F11A0AC84509DC23689B0700F10381B7
:104C5000E0680B9B9842B8BF184635E701235246DF
:104C600031462846B84701303FF42CAF09F101091D
:104C7000E8E7099B002B39DC1B4A01233146284613
:104C8000B84701303FF41EAFDDE9093959EA0303A3
:104C900002D12368D907D7D5DDE906233146284656
:104CA000B84701303FF40EAF4FF0000A04F11A0B81
:104CB000099B5B42534501DC4B4693E701235A466F
:104CC00031462846B84701303FF4FCAE0AF1010AEC
:104CD000EEE700BFFFFFEF7FF87F0008F47F0008DA
:104CE00000800008FC7F000804800008A36DDDF848
:104CF00028A05345A8BF5346002B994636DC4FF0F9
:104D0000000B29EAE97904F11A02A36D0493A3EBDD
:104D100009035B4531DC099B9A453ADC2368DA07D5
:104D200037D4099BAAEB0309049BAAEB030399451B
:104D3000A8BF9946B9F1000F33DC4FF0000829EA0B
:104D4000E97904F11A0B099BAAEB0303A3EB09030E
:104D500043457FF779AF01235A4631462846B84785
:104D600001303FF4AFAE08F10108ECE742463146AE
:104D70002846B8470130C2D1A4E60123314628466F
:104D80000492B84701303FF49DAE049A0BF1010B39
:104D9000BBE7DDE9062331462846B8470130C0D1DC
:104DA00090E6049A4B46424431462846B8470130C3
:104DB000C3D187E6DDF828A0BAF1010F01DCDB07DB
:104DC00036D50123424631462846B84701303FF4E4
:104DD00079AEDDE9062331462846B84701303FF475
:104DE00071AED4E91201002200230AF1FF3AFFF765
:104DF000BBFAC0B9534608F1010231462846B8470C
:104E000001300CD15EE601235A4631462846B847A8
:104E100001303FF457AE08F10108D045F3DB4B46B3
:104E200004F15002DFE64FF0000804F11A0BF4E73A
:104E300001234246E1E701234A4631462846B84766
:104E400001303FF43FAE08F10108E3680B995B1AAB
:104E50004345F0DCFCE64FF0000804F11909F4E7E3
:104E60002DE9F047164698468A680B69DDF82090D0
:104E70009342B8BF1346336091F8432007460C466F
:104E80000AB1013333602368990642BF33680233A5
:104E90003360256815F0060506D104F1190AE368A8
:104EA00032689B1AAB4226DC94F843302268003B00
:104EB00018BF012392062BD404F143024146384621
:104EC000C84701301ED02368226903F00603042B73
:104ED00002BFE5683368ED1AA3680CBF25EAE575E3
:104EE00000259342C4BF9B1AED1800261A34B54220
:104EF0001AD1002008E00123524641463846C847EF
:104F0000013003D14FF0FF30BDE8F0870135C6E72F
:104F1000E1185A1C302081F84300224494F84510CF
:104F200082F843100233C7E7012322464146384640
:104F3000C8470130E6D00136D9E700002DE9F0433B
:104F40000D7E85B0782D90460C9E07460C469946FE
:104F500001F1430207D8622D0AD8002D00F0D78056
:104F6000582D00F0BC8004F1420684F842503BE02A
:104F7000A5F16303152BF6D801A151F823F000BF6A
:104F8000D94F0008ED4F0008674F0008674F000831
:104F9000674F0008674F0008ED4F0008674F000893
:104FA000674F0008674F0008674F0008F55000087A
:104FB00017500008A7500008674F0008674F000807
:104FC00017510008674F000817500008674F000886
:104FD000674F0008AF50000833681A1D1B68326025
:104FE00004F1420684F842300123A1E033682068CE
:104FF000191D3160060601D51D6803E04506FBD585
:10500000B3F90050002D03DA2D236D4284F84330AC
:105010005B480A2311E021683368080653F8045BF3
:1050200002D4490648BFADB23360237E54486F2B8B
:105030005CD10823002184F843106668A660002E26
:1050400005DB21682E4321F00401216050D0164673
:10505000B5FBF3F103FB115C10F80CC006F801CDB1
:10506000AC4663450D46F3D9082B0BD12368DB070B
:1050700008D5236961689942DEBF302306F8013CF8
:1050800006F1FF36921B2261CDF80090434603AA39
:1050900021463846FFF7E4FE01304ED14FF0FF3095
:1050A00005B0BDE8F083236843F020032360354852
:1050B000782584F845502368316813F0800F51F843
:1050C000045B03D113F0400F18BFADB23160D907B4
:1050D00044BF43F0200323601DB11023AAE72848F2
:1050E000E7E7236823F020032360F6E70A23A1E71C
:1050F0001646B9E7336825686169181D30602E06C9
:105100001B6801D5196002E06806FBD519800023F1
:1051100023611646B8E733681A1D32601E6862685C
:1051200000213046FEF7A4FC08B1801B6060636874
:105130002361002384F84330A6E7236932464146C1
:105140003846C8470130A9D023689B0713D4E068CC
:10515000039B9842B8BF1846A2E701233246414656
:105160003846C847013099D00135E36803995B1A86
:10517000AB42F2DCEBE7002504F11906F5E700BFCE
:105180000680000817800008002310B50446C0E917
:105190000033C0E90433836081814366C281836147
:1051A000194608225C3000F02DF90D4B63620D4B5F
:1051B000A3620D4BE3620D4B23630D4B24629C42B3
:1051C00006D003F16802944202D0D0339C4205D14C
:1051D00004F15800BDE8104000F08AB910BD00BFCE
:1051E0007D5300089F530008D7530008FD53000863
:1051F0003C060020024A0349034800F06BB800BF98
:10520000C8000020856E0008D800002041680C4BC3
:10521000994210B5044601D001F034FEA168094B53
:10522000994202D0204601F02DFEE168064B9942DA
:1052300004D02046BDE8104001F024BE10BD00BFE0
:105240003C060020A40600200C0700200C4B0D4A51
:105250000D4810B504211A600022FFF795FF0A4B94
:1052600001221C46092103F16800FFF78DFF04F1BC
:10527000D0000222BDE810401221FFF785BF00BF19
:1052800074070020F55100083C060020014800F09A
:1052900030B900BF7D070020014800F02BB900BFE6
:1052A0007D07002010B50446FFF7F0FF236A1BB10D
:1052B000BDE81040FFF7F0BF044B2362044B1B68AE
:1052C000002BF5D1FFF7C2FFF2E700BF0D52000837
:1052D000740700202DE9F843074688461446002647
:1052E000D4E90195B9F1010905D52468002CF7D15D
:1052F0003046BDE8F883AB89012B07D9B5F90E30EC
:10530000013303D029463846C04706436835E9E7EC
:105310000CB430B5184B0C1E1D689DB008DA8B23F9
:105320002B604FF0FF301DB0BDE8304002B0704739
:105330004FF40273ADF814304FF000031B9314BF09
:1053400004F1FF332346049307934FF6FF73029053
:105350000690ADF81630209A21AB02A92846019399
:1053600001F016FC431CBCBF8B232B60002CDAD051
:10537000029B00221A70D6E7D400002010B50C461C
:10538000B1F90E1000F06CF80028ABBF636DA38973
:105390001B1823F48053ACBF6365A38110BD2DE9B6
:1053A000F0411F468B89DB0505460C46164605D5A0
:1053B000B1F90E100223002200F040F8A389B4F9DD
:1053C0000E1023F48053A38132463B462846BDE8A5
:1053D000F04100F057B810B50C46B1F90E1000F0CE
:1053E0002DF8B4F90C30421C0BBF23F4805343F466
:1053F0008053A381A38118BF606510BDB1F90E1061
:1054000000F00CB802440346934200D1704703F801
:10541000011BF9E7004870471402002038B5064D1B
:105420000023044608462B6002F0C0F8431C02D15A
:105430002B6803B1236038BD7807002038B5074DCD
:1054400004460846114600222A601A4602F0D6F8A1
:10545000431C02D12B6803B1236038BD78070020BC
:1054600038B5074D04460846114600222A601A4600
:1054700002F0CCF8431C02D12B6803B1236038BD85
:105480007807002038B5074D04460846114600222B
:105490002A601A4602F0D0F8431C02D12B6803B1EF
:1054A000236038BD7807002070B50D4B0D4D5B1B98
:1054B0009C100026A64209D102F0C6F80A4D0B4BFB
:1054C0005B1B9C100026A64205D170BD55F8043B1D
:1054D00098470136EEE755F8043B98470136F2E766
:1054E0009C8300089C8300089C830008A08300081C
:1054F0007047704770472DE9F74F03690C69A34265
:1055000007467EDB013C01F11408A30000F11405FD
:10551000009305EB8403019358F8243055F82420B8
:1055200001339A4208EB8409B2FBF3F62ED34FF015
:10553000000AC446AE46D3465CF8043B98B206FB6C
:1055400000A0020C1B0C06FB0323DEF8002080B237
:1055500092B2121A5A44DEF800004FEA134A9BB284
:10556000C3EB224303EB104392B242EA0342E1450C
:105570004EF8042B4FEA234BDED2009BEB582BB99D
:10558000019B043B9D421A462FD33C61384601F0F3
:1055900093F9002825DB2946002058F8042BD1F880
:1055A00000C01FFA82FE1FFA8CF3A3EB0E03034424
:1055B000120CC2EB234202EB1C429BB243EA0243B1
:1055C000C14541F8043B4FEA2240E6D255F8242079
:1055D00005EB840322B9043B9D421A460BD33C6180
:1055E0000136304603B0BDE8F08F1268043B002A54
:1055F000CBD1013CC6E71268043B002AEFD1013C45
:10560000EAE70020EEE700002DE9F04F99B08DEDBC
:105610000E0B0C92C269229C0A9157EC106B8146CA
:10562000139382B9102000F015FE0246C9F81C0041
:1056300020B9AB4BEF21AB4801F084FC0023C0E95B
:1056400001330360C360116859B152684A60012395
:1056500093408B60484600F0F1FED9F81C300022E0
:105660001A60B7F10008B5BF01230023236023604F
:105670009D4BBCBF28F00048CDF83C8033EA0803BE
:105680001AD1139AC8F3130842F20F7358EA0608A6
:10569000136000F06885239B53B9944B21E0944B31
:1056A00000930833239A1360009819B0BDE8F08F77
:1056B0008E4B00930333F5E79DED0E7B002251ECFA
:1056C000170B00238DED067BFEF74EFE824650B190
:1056D000139A01231360239B13B1239A854B136004
:1056E000854B0093E0E79DED060B16AA17A94846E7
:1056F00001F096F95FEA1854169D019079D0079B46
:10570000CDF850A0C3F31303DDE9060143F07F5346
:1057100043F44013A4F2FF3419460022774BFEF7FE
:1057200003FA69A3D3E90023FEF7B6FB68A3D3E924
:105730000023FEF7FBF9064620460F46FEF742FB24
:1057400065A3D3E90023FEF7A7FB02460B463046CC
:105750003946FEF7EBF906460F46FEF74DFE0022EE
:105760008046002330463946FEF708FE48B14046E1
:10577000FEF728FB32463B46FEF7F6FD08B908F176
:10578000FF38B8F1160F51D85D4B03EBC803D3E9CE
:105790000023DDE90601FEF7F1FD002848D008F1FD
:1057A000FF38002312932D1B6B1E089343BF002369
:1057B000C5F1010708930027B8F1000F3ADB089BF9
:1057C000CDF8348043440893002309930A9B092BA6
:1057D00062D8052BC4BF043B0A930A9BA3F10203C2
:1057E000CCBF00240124032B62D8DFE803F051531F
:1057F000362B179C2C4404F23243202BC1BFC3F13B
:10580000400308FA03F804F2124326FA03F3D6BF62
:10581000C3F1200348EA030006FA03F0FEF7C2FAD8
:105820000122A1F1F873013C149275E70123B9E755
:105830001290B8E7C8F1000309930023A7EB08070B
:105840000D93C3E701230B930C9B43440593013352
:10585000012B0493B8BF012306E001230B930C9B9B
:10586000002B28DDCDE90433D9F81C0000210422E7
:1058700002F114059D4223D94160484600F0A0FD85
:105880000090002840D11F4B024640F2AF11D2E6F3
:105890000023E3E70023D6E701240023CDE90A34FF
:1058A0004FF0FF33CDE90433002212230C92DBE7E3
:1058B00001230B93F4E70123CDE904331A46F5E7FE
:1058C00001315200D4E700BF61436F63A787D23F25
:1058D000B3C8608B288AC63FFB799F501344D33FDF
:1058E000358000084C8000080000F07F31800008FF
:1058F0002880000805800008048000080000F83FA8
:10590000C8810008A4800008D9F81C30009A1A60E9
:10591000049B0E2B00F2A180002C00F09E80B8F1B9
:10592000000F36DD9E4B08F00F0203EBC20318F4A4
:10593000807FD3E900AB4FEA281516D0994BDDE9FB
:105940000601D3E90823FEF7D1FBCDE9020105F0FA
:105950000F050324934E75B9DDE9020152465B46FB
:10596000FEF7C4FB82468B462DE09DED067B0224AC
:105970008DED027BEEE7E90708D550465946D6E99A
:105980000023FEF789FA013482468B466D100836F3
:10599000E1E700F0AD80C8F10005814B814E05F0D4
:1059A0000F0203EBC203D3E90023DDE90601FEF792
:1059B00073FA2D1182468B4600230224002D40F0FD
:1059C0008C80002BCED1129B002B00F09580764B63
:1059D000002250465946FEF7D1FC002800F08C808A
:1059E000049B002B00F08880059B002B35DD08F11F
:1059F000FF330293504659466C4B0022FEF74CFA97
:105A0000059E82468B4601342046FEF7DBF952465E
:105A10005B46FEF741FA664B0022FEF787F8044624
:105A2000A1F15075CDE91045002E69D1614B0022DE
:105A300050465946FEF778F822462B4682468B465A
:105A4000FEF7BAFC002840F09482224605F100439C
:105A500050465946FEF792FC20BB179B002BC0F224
:105A60006081B8F10E0F00F35C814D4B03EBC8036E
:105A7000D3E900AB0C9B002B80F2EE80049B002B43
:105A800000F3EA800ED14B4B002250465946FEF7F8
:105A900003FA02460B46DDE90601FEF779FC002811
:105AA00000F06A8200252C460C9B009EDB4302938B
:105AB000274600242946484600F0C0FC002F00F08D
:105AC000C1802CB1BC4203D02146484600F0B6FC50
:105AD0003946484600F0B2FCB4E0EA0705D5D6E9FD
